:020000041000EA
:10000000002008205D0100101301001015010010F0
:100010001101001011010010110100101101001058
:100020001101001011010010110100101701001042
:100030001101001011010010190100101B01001026
:100040001D0100101D0100101D0100101D010010F8
:100050001D0100101D0100101D0100101D010010E8
:100060001D0100101D0100101D0100101D010010D8
:100070001D0100101D0100101D0100101D010010C8
:100080001D0100101D0100101D0100101D010010B8
:100090001D0100101D0100101D0100101D010010A8
:1000A0001D0100101D0100101D0100101D01001098
:1000B0001D0100101D0100101D0100101D01001088
:1000C0001D0100101D0100101D0100101D01001078
:1000D0001D0100101D0100101D0100101D01001068
:1000E0001D0100101D0100101D0100101D01001058
:1000F0001D0100101D0100101D0100101D01001048
:100100001D0100101D0100101D0100101D01001037
:1001100000BE00BE00BE00BE00BE00BEEFF3058004
:10012000103800BEF2EB887188B20410A8B2041037
:10013000A801001090A31AE7D3DEFFFF42012110AF
:10014000FF01000048D50400793512AB4FF00000E4
:100150002049086006C881F3088810474FF05040D6
:10016000006810B14FF00000F2E70FA40ECC002998
:1001700002D000F015F8F9E71749184A002000E00E
:1001800001C19142FCD1002080F30A8814498847BC
:10019000144988471449884700BEFDE701C901C2D8
:1001A0009A42FBD3704700BFA8B204101001002090
:1001B000E824002080D60410000008200000082059
:1001C00080D6041000100820001008200000000055
:1001D0007047000008ED00E0E82400201CD000205B
:1001E0002197001051150010E5960010F8B500BFDA
:1001F0000348044B834202D0034B03B118477047B6
:10020000E8240020E824002000000000064B0749F5
:10021000C91A891048BF0131491003D0044B0BB1F2
:1002200001481847704700BFE8240020E824002058
:100230000000000010B5064C237843B9FFF7D8FF43
:10024000044B13B10448AFF300800123237010BDA9
:100250006488002000000000C028041008B5044B8A
:100260001BB104490448AFF30080BDE80840CDE766
:100270000000000068880020C02804102DE9F04329
:10028000144601250F4600264FF00A098046DFF884
:1002900054C187B000952B46C4E9011C05AA01464C
:1002A000207038468DF8149009F06EFD41463846AE
:1002B0002B4600960DF1130209F06EFD9DF81330E8
:1002C000009663F07F03217805AA8DF815306068E9
:1002D00002238DF8149009F057FD142007F050F810
:1002E0000095676821782B4605AA384603918DF85A
:1002F000149009F049FD2B46039900960DF1130265
:10030000384609F049FD4FF6077300962178ADF89D
:10031000143005AA0223606809F036FD40F2133359
:1003200000962178ADF8143005AA0223606809F020
:100330002BFD4FF608720096ADF8142002232178A9
:10034000606805AA09F020FDE67A36B301230C2582
:1003500000266768217805AA0093384603918DF836
:10036000145009F011FD03990DF1130201233846D1
:10037000009609F011FD9DF81310009661F07F01C1
:100380008DF8151002232178606805AA8DF81450A5
:1003900009F0FAFC07B0BDE8F08309270095D4F80E
:1003A000048021782B4605AA404603918DF81470ED
:1003B00009F0EAFC2B4603990DF113024046009622
:1003C00009F0EAFC9DF81310009641F007018DF842
:1003D000151002232178606805AA8DF8147009F0C1
:1003E000D3FCB3E780BB010030B50025132185B0F5
:1003F0000095044603AAADF80C100223017840686A
:1004000009F0C2FC4FF0080C0095217803AA0223E2
:100410006068ADF80CC009F0B7FC4FF0070C009510
:1004200002232178606803AAADF80CC009F0ACFC87
:1004300005B030BD284B70B41868836800F118040B
:100440009B0103F1A0431B6800F5C0421B6892F8B2
:100450005B10A34224D099B100F5005600F5804509
:1004600000232836383503E0C3B10133994207D061
:10047000012B11D0022BF7D1013399421564F7D12A
:10048000012382F84730012370BC4FF0A042C168BD
:100490008B40C2F80C347047D663E6E79463E4E718
:1004A0000029EDD000F5405600F5A04500F5805438
:1004B000002328363835183403E053B101338B421A
:1004C000DED0012B03D0022BF7D11564F6E7D663FB
:1004D000F4E79463F2E700BF14D0002000F5C040B9
:1004E00090F84730012B00D0704710B52DED0A8BE6
:1004F00090F85B40002C00F08E80002106E000297F
:1005000000F00F810131A14200F08580012900F047
:100510008B800229F3D1D0ED6DBA90ED75BAD0ED94
:100520006EAA90ED76AAD0ED6F9A90ED779AD0ED05
:10053000708A90ED788A90ED710AD0ED790A90ED8D
:10054000721AD0ED7A1A90ED732AD0ED7B2A90EDD5
:10055000743AD0ED7C3AD0F8302102F5005302F520
:10056000405E026C93ED005AF0EE4B4AD3ED015A17
:10057000E5EE2B4AB0EE4A5A93ED026AA5EEAA5A6E
:10058000F0EE495AD3ED036AE6EE295AB0EE486A16
:1005900093ED047AA6EEA86AF0EE606AD3ED057AD0
:1005A000E7EE006AB0EE617A93ED064AA7EE817A33
:1005B000F0EE627A93ED07CAE4EE027AB0EE634A97
:1005C000ACEE034AFDEEE44ABDEEC55AFDEEE55A37
:1005D000BDEEC66AFDEEE66ABDEEC77AFDEEE77ACD
:1005E000BDEEC44A20339E4502F1200202ED014ACD
:1005F00042ED084A02ED075A42ED065A02ED056A3D
:1006000042ED046A02ED037A42ED027AAAD1013189
:10061000A1427FF47BAF0022012380F8472080F8BD
:100620004830BDEC0A8B10BDD0ED5DBA90ED65BAD7
:10063000D0ED5EAA90ED66AAD0ED5F9A90ED679A34
:10064000D0ED608A90ED688A90ED610AD0ED690A7C
:1006500090ED621AD0ED6A1A90ED632AD0ED6B2A04
:1006600090ED643AD0ED6C3AD0F8302102F5805329
:1006700002F5005EC26B93ED005AF0EE4B4AD3EDEB
:10068000015AE5EE2B4AB0EE4A5A93ED026AA5EE06
:10069000AA5AF0EE495AD3ED036AE6EE295AB0EEB3
:1006A000486A93ED047AA6EEA86AF0EE606AD3ED8C
:1006B000057AE7EE006AB0EE617A93ED064AA7EE9E
:1006C000817AF0EE627A93ED07CAE4EE027AB0EE38
:1006D000634AACEE034AFDEEE44ABDEEC55AFDEEB8
:1006E000E55ABDEEC66AFDEEE66ABDEEC77AFDEEDE
:1006F000E77ABDEEC44A20339E4502F1200202EDA6
:10070000014A42ED084A02ED075A42ED065A02ED4F
:10071000056A42ED046A02ED037A42ED027AAAD13B
:10072000F0E6D0ED4DBA90ED55BAD0ED4EAA90ED71
:1007300056AAD0ED4F9A90ED579AD0ED508A90ED91
:10074000588A90ED510AD0ED590A90ED521AD0ED29
:100750005A1A90ED532AD0ED5B2A90ED543AD0ED21
:100760005C3AD0F83031826B03F5805E93ED005A2D
:10077000F0EE4B4AD3ED015AE5EE2B4AB0EE4A5A61
:1007800093ED026AA5EEAA5AF0EE495AD3ED036A38
:10079000E6EE295AB0EE486A93ED047AA6EEA86A0E
:1007A000F0EE606AD3ED057AE7EE006AB0EE617AAA
:1007B00093ED064AA7EE817AF0EE627A93ED07CACE
:1007C000E4EE027AB0EE634AACEE034AFDEEE44A90
:1007D000BDEEC55AFDEEE55ABDEEC66AFDEEE66A0F
:1007E000BDEEC77AFDEEE77ABDEEC44A203373450D
:1007F00002F1200202ED014A42ED084A02ED075AD9
:1008000042ED065A02ED056A42ED046A02ED037AF2
:1008100042ED027AAAD175E62DE9F04F2DED088B55
:1008200012F0070A99B02B9E40F0648691461C4650
:1008300002F5005302F580423832283309F5C04BE7
:10084000CBE90F320B9309F11803CBF83061CBF8E9
:10085000383089F804A0D1ED007AF8EE678AD1ED3E
:10086000017AF8EE677A0A93CF4BC9F80000804608
:1008700005200C920D4668EEA78AC3F8009006F09A
:10088000B3FEB1EE00BA07EE900A68EE8B8AF8EE7E
:1008900067AACAEEA87A13A917EE900A41F0CCFF16
:1008A000DFEDC29A07EE100ADDED137A27EE297A02
:1008B000FCEEE77ABCEEC77A17EE903A8DED047A3B
:1008C0009BB207EE903AA3819DF810309FEDB89A45
:1008D00007EE103AF8EE677AB8EE477AA373D5EDD3
:1008E000016AE7EE097AB8EE668A8AEEA77AB5EE73
:1008F00000AAC7EE088A68EE8A8A0520C4ED008A3D
:1009000006F072FE28EE288A07EE900A28EE0B8A7F
:10091000F8EE678AC8EE887A13A917EE900A41F0BC
:100920008BFF9DED137ABCEEC77A17EE103A07EEF7
:10093000900A9BB267EEA96A07EE903AB8EE677A22
:10094000FCEEE67ACDED047AA3819DF8103094EDAB
:10095000006A07EE903AF8EE677AA7EE897AC8EE59
:10096000877AC4ED017AA3736B7AB2EE008A07EE40
:10097000903AF8EE677A67EE867A77EEA77A0520E6
:1009800027EE888A06F030FE07EE900AF8EE678AB6
:10099000C8EE887A13A917EE900A41F04DFFD4ED06
:1009A00001AA07EE100ADDED137A67EE299A2AEE06
:1009B0008A7AFCEEE77A17EE100ABCEEE97A17EEB7
:1009C000903A8DED047A9BB207EE903A23829DF81F
:1009D0001030F8EE677A07EE103AB8EE477AE7EE95
:1009E000097A88EEA78AA37484ED028A41F000FF99
:1009F000CAEE887A02460B46A17B1AEE900A039152
:100A0000A18917EE906ACDE90423029141F0F0FE2E
:100A1000DDE90423CDE90001664809F08DF8F4EE24
:100A2000007A68EE277A17EE900A41F0E1FE02465E
:100A30000B46A17CCDE904230391218A0291A06891
:100A400041F0D6FEDDE90423CDE900015A4809F062
:100A500073F8304641F0CCFE02460B46574809F089
:100A60006BF8304613A941F0E7FE07EE900AF5EE69
:100A7000407AF1EE10FA40F0408595E80F0001262B
:100A80000BF14C0C0BF15C078CE80F000FCC0FC77F
:100A9000236831463B60404609F096F9034699F8D1
:100AA000042089F80530DBB206FA03F31343444906
:100AB00089F80430404609F0A3F9024608F12F43B3
:100AC00003F560039BF856401B0D0633D9B2204650
:100AD00006FA04F3154699F8057009EE101A069304
:100AE00005F046FF4FF440239FED2D8B1093EBB2A2
:100AF0001A468DED0E8B01330492D20142EA033186
:100B000023095B01CDF844A00DF1380E63F4787031
:100B100007910890F446BEE80F0013AD4FF0FF3E7A
:100B20002E460FC50799C5F800E0640114910FCE59
:100B300004F47874ACE80F00089844F08064CDE9C0
:100B40001140069C524623463946404609F0DCF9DE
:100B5000234622463946404609F012FA3946049A9D
:100B60000EAB404609F048FA99F805309BF86A1038
:100B700003EB430308EBC302BBF868301B0443EAF2
:100B80000123C2F8C8309BF85B30002B00F0AB8427
:100B9000CDF81090CDF834A0D946C34691E000BFFF
:100BA0000000010000F0010014D00020000080438C
:100BB0000000803BEC280410242904105C29041058
:100BC000302A04100121584609F0FEF803464FF080
:100BD0000108049C89F846302279DBB208FA03F355
:100BE00013432371AF49584609F00AF999F85A405E
:100BF000054608FA04F3204619EE101A99F84680C3
:100C000099F85560069305F0B3FE00224FF4402397
:100C10008DED0E8B760606F07856119246F08042E6
:100C2000EDB242F480221093099205F10B03EA0120
:100C300042EA0331230913AE0DF1380E63F01F00B1
:100C4000079108907746BEE80F00B4460FC64FF0F4
:100C5000FF33079933601491BCE80F0004F01F04C0
:100C60000FC70898099A44F48014CDE91140414611
:100C700010920EAB2A46584609F0BEF9069C002297
:100C800023464146584609F03FF92346224641464D
:100C9000584609F075F999F84630B9F86C2099F87A
:100CA0006E1003EB430312040BEBC30342EA012271
:100CB000C3F8C82099F85B400AF1010AA24580F008
:100CC000E180BAF1010F09D0BAF1020F3FF47AAF17
:100CD000BAF1000F6CD0744805F0D2FE5146584668
:100CE00009F072F80346049C89F845302279DBB29A
:100CF0000AFA03F3134323716A49584609F080F84E
:100D000099F8595004460AFA05F3284619EE101AC4
:100D100099F8458099F85560069305F029FE002260
:100D20004FF440238DED0E8B760606F07856119227
:100D300046F08042E4B242F480221093099204F11A
:100D40000B03E20142EA03312B0913AE0DF1380E19
:100D500063F01F00079108907746BEE80F00B44685
:100D60000FC64FF0FF33079933601491BCE80F00B2
:100D700005F01F050FC70898099A45F480154146EC
:100D8000CDE9115010920EAB2246584609F034F9C5
:100D9000069C002223464146584609F0B5F82346F2
:100DA00022464146584609F0EBF899F8453074E779
:100DB0000121584609F008F803460124049D89F8EA
:100DC00044302A79DBB204FA03F313432B71374919
:100DD000584609F015F899F8586099F8575099F85D
:100DE0005530804619EE101A304699F84470069333
:100DF00005F0BEFD19EE101A284605F0B9FD2819B8
:100E000019EE101A05F0B4FD069B06F01F015B06F3
:100E100003F0785343F0804343F4802315934FF459
:100E200080331393AB0203F4F8430B4343F0804346
:100E300043F480131E4916932809330943EA80239B
:100E40005FFA88F20B43179302F10B01D30143EAD7
:100E500001331493394613AB584609F0CDF80323F8
:100E6000B440AB402343524639465846069309F0F6
:100E70004BF8069B39461A46584609F081F899F80E
:100E800044300AE7CB46C0222A990BF17000DDF806
:100E900034A0DDF8109035F087F9002C00F0A28026
:100EA00000230EE0102A041090290410F0290410E9
:100EB000E083FFFF002B00F097810133A34200F095
:100EC0009180012B00F00781022BF3D1DBED3C7AFE
:100ED000F8EEE75ADBED3D7AB8EEE76ADBED3E7AF5
:100EE000F8EEE76ADBED3F7AB8EEE77ADBED407AC1
:100EF000F8EEE77ACBED797ADBED417ACBED755AF6
:100F0000F8EEE75ADBED427A8BED766AB8EEE76AE7
:100F1000DBED437ADBF8F010DBF81021CBED776ADC
:100F2000521AF8EEE76A07EE902ADBF8F410DBF8C5
:100F300014218BED787A521AB8EEE77A07EE902AF0
:100F4000F8EEE77ADBF8F810DBF81821CBED6E7AD3
:100F5000521A07EE902ADBF8FC10DBF81C218BED0F
:100F60007B6A521AB8EEE76A07EE902ADBF80011A6
:100F7000DBF82021CBED7C6A521AF8EEE76A07EE27
:100F8000902ADBF80411DBF824218BED6D7A521ADC
:100F9000B8EEE77A07EE902AF8EEE77ACBED7A5AC8
:100FA0008BED6F6ACBED706A8BED717ADBF808110F
:100FB000DBF82821CBED727A521A07EE902ADBF883
:100FC0000C11DBF82C21B8EEE77A521A07EE902AC2
:100FD000F8EEE77A0133A3428BED737ACBED747AA6
:100FE0007FF46FAFE34B1B6803F5C04393F85B30AE
:100FF000002B00F01D8209F540530024DE4D03F163
:101000002806CDF810A05BE0012008F0CDFE0346D5
:1010100009F58047BB62012008F0C6FE4FF00108C9
:101020004FF0000E4FF4806C0C9BD44A3B63BB6ABC
:10103000D34909F5A04A02EA43320AF1380A1143BA
:10104000D9F80020C7F834A0F862870105EA4030DB
:1010500040EA433009F5804A9B0103F1A0430AF1BD
:10106000300AC3F800A007F1A04A0AF13C0AC3F80D
:1010700004A0C3F80880196102F12F4303F560034F
:101080009BF8461020F4FC0007F1A0471B0D01EB74
:10109000C30340EA4343043102EB810243F01903E6
:1010A000C7F800E07A60C7F808C03B61B14B013473
:1010B0001B6803F5C04393F85B309C4280F0B68117
:1010C000012C00F01A81022C9ED0002C00F05C81D3
:1010D000AC4805F0D5FCDBED2C7AF8EEE75ADBEDF9
:1010E0002D7AB8EEE76ADBED2E7AF8EEE76ADBEDF3
:1010F0002F7AB8EEE77ADBED307AF8EEE77ACBEDCF
:10110000697ADBED317ACBED655AF8EEE75ADBED23
:10111000327A8BED666AB8EEE76ADBED337ADBF89C
:10112000B010DBF8D020CBED676A521AF8EEE76A10
:1011300007EE902ADBF8B410DBF8D4208BED687A48
:10114000521AB8EEE77A07EE902AF8EEE77ADBF863
:10115000B810DBF8D820CBED5E7A521A07EE902A51
:10116000DBF8BC10DBF8DC208BED6B6A521AB8EEB2
:10117000E76A07EE902ADBF8C010DBF8E020CBED41
:101180006C6A521AF8EEE76A07EE902ADBF8C41090
:10119000DBF8E4208BED5D7A521AB8EEE77A07EEC1
:1011A000902AF8EEE77ACBED6A5A8BED5F6ACBEDC9
:1011B000606A8BED617ADBF8C810DBF8E820CBEDD4
:1011C000627A521A07EE902ADBF8CC10DBF8EC209A
:1011D000B8EEE77A521A07EE902AF8EEE77A8BED2E
:1011E000637ACBED647A68E6DBED1C7AF8EEE75AB9
:1011F000DBED1D7AB8EEE76ADBED1E7AF8EEE76A02
:10120000DBED1F7AB8EEE77ADBED207AF8EEE77ACD
:10121000CBED597ADBED217ACBED555AF8EEE75A52
:10122000DBED227A8BED566AB8EEE76ADBED237AC6
:10123000DBF87010DBF89020CBED576A521AF8EE0D
:10124000E76A07EE902ADBF87410DBF894208BED48
:10125000587A521AB8EEE77A07EE902AF8EEE77A53
:10126000DBF87810DBF89820CBED4E7A521A07EEB7
:10127000902ADBF87C10DBF89C208BED5B6A521A1D
:10128000B8EEE76A07EE902ADBF88010DBF8A020C2
:10129000CBED5C6A521AF8EEE76A07EE902ADBF8AB
:1012A0008410DBF8A4208BED4D7A521AB8EEE77A61
:1012B00007EE902AF8EEE77ACBED5A5A8BED4F6A9B
:1012C000CBED506A8BED517ADBF88810DBF8A82063
:1012D000CBED527A521A07EE902ADBF88C10DBF82D
:1012E000AC20B8EEE77A521A07EE902AF8EEE77AC9
:1012F0008BED537ACBED547ADFE5204608F054FDB0
:10130000034609F50057BB61204608F04DFD0B9BD5
:101310001A4AC7E90836BB69194902EA4332114340
:10132000D9F80020F861870105EA403040EA4330EF
:1013300009F500589B0103F1A04308F12008C3F808
:10134000008007F1A04808F13C08C3F804809C60C5
:10135000196102F12F4303F560034FF0000E4FF4C3
:10136000806C9BF8451020F4FC0007F1A0471B0D92
:101370008DE600BF14D00020FD1F7EFCFDFF7FFC2A
:1013800019037E00C0290410012008F00DFD03465A
:101390000120C9F8083008F007FD4FF001084FF4AC
:1013A000806E0A9BD9F808A0C9F81030544BDFF8BA
:1013B00068C103EA4A3343EA0C0C4FEA8A1109F583
:1013C000805301F1A041183309F11002D9F80070DF
:1013D000C9F81430C9F80C000A60820105EA4030EF
:1013E00040EA4A3002F1A04A0AF13C0AC1F804A0DE
:1013F00007F12F43C1F80880C1F810C09BF84410D2
:1014000003F560031B0D01EBC30320F4FC0040EA6D
:101410004343043102F1A04207EB810743F0190373
:1014200014605760C2F808E013613FE6DDF810A0D1
:101430000124D9F80C30334A04FA03F3C2F8043417
:101440000A20314905F022FC21460A2005F008FC5B
:101450002E4B1B6803F5C04393F85B20FAB14FF0A5
:10146000A041534609F5005509F5804007E0866A1A
:1014700004FA06F6C1F85064013393420FD0012BF1
:101480002BD0022BF3D0002B7FF422AED9F80860CA
:10149000013304FA06F69342C1F85064EFD199F88B
:1014A0000420D9F80010130203F4706302F00F0255
:1014B000134301F5005213609BF854309BED177AEB
:1014C00007EE903AF8EE677AC7EE277A17EE900AA1
:1014D00019B0BDEC088BBDE8F08FAE6903FA06F6D3
:1014E000C1F85064C8E7C0222A990BF1700034F0AB
:1014F0005BFE77E5064805F0C3FA064805F0C0FA3A
:10150000FDFF7FFC002000503504001014D00020A7
:10151000C02804107029041019037E00002202491B
:1015200002724160704700BF40420F00704700BF29
:10153000D0E90032934204D8027A013303601046A6
:1015400070470123027A03605A40027210467047C6
:101550002DE9F04786B008F031FA6149614808F09A
:10156000EDFB0321022005F003FA032101250846C3
:1015700005F0FEF929460022022005F017FA0022A4
:101580002946032005F012FA0321022005F036FA5D
:101590000321084605F032FA2946022005F020FA18
:1015A0002946032005F01CFA4F4C5049504BCDE919
:1015B0000014504A50495148FFF72EF9322005F0E7
:1015C000DFFE4F4A47494C20FEF758FE322005F017
:1015D000D7FE4B48FEF708FF00F098F8192005F0F9
:1015E0002DFA192345EC4430152005F027FA152370
:1015F00045EC443038A7D7E9006700F0C1F84FF058
:10160000000A04F039FA3F4DDFF8FC8004F58054FD
:10161000DFF8E090002000F0D5F8192340EC4030CE
:10162000012000F0CFF8152340EC403041F2883221
:101630002B68934203F1010120DC48462960FEF744
:101640004DFF98F84830012BE4D1274B002220337E
:10165000A34243F8202C43F81C2C43F8182C43F8E1
:10166000142C43F8102C43F80C2C43F8082C43F8A6
:10167000042CEBD1002388F84830C9E7002028600B
:1016800000F064F806F000FA32463B4606F0A0F996
:1016900006F0ECF903460120039300F057F806F03A
:1016A000F3F932463B4606F093F906F0DFF90346BC
:1016B00003A80493CDF814A005F0E8F800F08CF826
:1016C0002B68484601332B60FEF708FF98F8483036
:1016D000012B9FD1B9E700BF0000000000FEAF4022
:1016E000A0860100281A0020C09F00204419002075
:1016F00000D00020702600203C2A0410000020505A
:10170000D0CF0020BC9F00207086002008B508F0D4
:1017100001FD1F211A2005F02BF900221A20114685
:1017200005F044F900211A2005F078F91F211B204B
:1017300005F01EF900221B20114605F037F9BDE81F
:10174000084000211B2005F069B900BF30B4042413
:10175000084A094D1368094983EA003303F47043CA
:101760002B600C601368DB05FCD530BC506880B280
:10177000704700BF00000A4000100A4000200A40E5
:1017800038B50F4C236813B163686BB138BD0C20BA
:1017900006F06CFC0546FFF7C1FE28462560FFF702
:1017A000C5FE6368002BF1D10C2006F05FFC0546F6
:1017B000FFF7B4FE28466560BDE83840FFF7B6BEC7
:1017C0009C890020034B53F8200008B1FFF7B0BEFE
:1017D000704700BF9C8900200C4B1A684AB1D0EDBD
:1017E000007A9FED0B7A67EE877AFCEEE77AC2ED1E
:1017F000017A5B684BB1D0ED047A9FED057A67EE14
:10180000877AFCEEE77AC3ED017A70479C89002065
:1018100000247449F8B506462DED048B002038F0FD
:10182000A3FE9FED929AF0EE008ABFEE008A34F09C
:1018300063FE06F1480506F1C007A5F1200434F067
:1018400063FE07EE900AF8EEE77AB0EE487A67EEAC
:10185000897AA7EEA87AA4EC017AAC42EFD104F120
:101860002805BD42E9D19FED819AF0EE008ABFEED6
:10187000008A06F1C40506F5F277A5F11C0434F0E0
:1018800043FE07EE900AF8EEE77AB0EE487A67EE8C
:10189000897AA7EEA87AA4EC017AAC42EFD104F1E0
:1018A0002405BD42E9D19FED719AF0EE008ABFEEAA
:1018B000008A06F5F47506F53277A5F1180434F0C0
:1018C00023FE07EE900AF8EEE77AB0EE487A67EE6C
:1018D000897AA7EEA87AA4EC017AAC42EFD104F1A0
:1018E0002005BD42E9D19FED619AF0EE008ABFEE7E
:1018F000008A06F5367706F57275A7F1200434F0F4
:1019000003FE07EE900AF8EEE77AB0EE487A67EE4B
:10191000897AA7EEA87AA4EC017ABC42EFD104F14F
:101920002807AF42E9D19FED519AF0EE008ABFEE51
:10193000008A06F59967A5F1180434F0E5FD07EE75
:10194000900AF8EEE77AB0EE487A67EE897AA7EE69
:10195000A87AA4EC017AA542EFD12035AF42EAD1B2
:101960009FED429AF0EE008ABFEE008A06F596647B
:1019700006F59A6534F0C8FD07EE900AF8EEE77AAE
:10198000B0EE487A67EE897AA7EEA87AA4EC017ADD
:10199000A542EFD19FED359AF0EE008ABFEE008AA6
:1019A00006F59B6406F2F44534F0AEFD07EE900AAE
:1019B000F8EEE77AB0EE487A67EE897AA7EEA87A71
:1019C000A4EC017AA542EFD19FED289AF0EE008AAF
:1019D000BFEE008A06F2FC4406F2145534F094FD82
:1019E00007EE900AF8EEE77AB0EE487A67EE897A69
:1019F000A7EEA87AA4EC017AA542EFD19FED1B9A3D
:101A0000F0EE008ABFEE008A06F21C5406F23C5546
:101A100034F07AFD07EE900AF8EEE77AB0EE487AF5
:101A200067EE897AA7EEA87AA4EC017AA542EFD1F5
:101A30009FED0E9AF0EE008ABFEE008A06F2445443
:101A400006F25C5634F060FD07EE900AF8EEE77A95
:101A5000B0EE487A67EE897AA7EEA87AA4EC017A0C
:101A6000A642EFD1BDEC048BF8BD00BF00000030F2
:101A70002DE9F04F2DED108B81460D461446ADF249
:101A8000045D1222F949FA480193CDF8F454CDF8D7
:101A9000FC4424F09BFD09F58053D3F88819F448E1
:101AA00024F074FF0B22F34924F090FDDDF8683533
:101AB000002B43F3FB83013BCDF8F8340123DFED2A
:101AC000EEFA9DED011ACDF8EC346B68CDF8F034E8
:101AD000DDF8F034002B03F02E84D9EDEC7ACDED57
:101AE000697AD9EDF47ACDED6A7AD9EDFC7A09F507
:101AF0008261CDED6B7AD1ED007A09F58662CDED8C
:101B00006C7AD2ED007A09F58A63CDED6D7AD3ED6A
:101B1000007A09F58E6BCDED6E7ADBED007ACDEDB6
:101B20006F7AD9EDED7ACDED717AD9EDF57ACDED0B
:101B3000727AD9EDFD7ACDED737AD1ED017ACDEDE2
:101B4000747AD2ED017ACDED757AD3ED017ACDEDCF
:101B5000767ADBED017ACDED777AD9EDEE7ACDEDBF
:101B6000797AD9EDF67ACDED7A7AD9EDFE7ACDEDA6
:101B70007B7AD1ED027ACDED7C7AD2ED027ACDED91
:101B80007D7AD3ED027ACDED7E7ADBED027ACDED72
:101B90007F7AD9EDEF7ACDED817AD9EDF77ACDED77
:101BA000827AD9EDFF7ACDED837AD1ED037ACDED4E
:101BB000847AD2ED037A09F5926ACDED857ADAED71
:101BC000007ACDED707ADAED017A09F24450CDED6C
:101BD000787AD0ED007ACDEDCE7AD0ED017A09F2A7
:101BE000FC4409F58067CDF8E04409F20444F29022
:101BF000CDF8E874CDF8DC44CDEDCF7ADAED027A99
:101C0000CDED807AD0ED027ACDEDD07AD3ED037AA6
:101C1000CDED867ADBED037ACDED877ADAED037AC6
:101C2000CDED887AD0ED037ACDEDD17AD9EDF07A89
:101C3000CDED897AD9EDF87ACDED8A7AD7ED007AB3
:101C4000CDED8B7AD1ED047ACDED8C7AD2ED047A9C
:101C5000CDED8D7AD3ED047ACDED8E7ADBED047A7D
:101C6000CDED8F7ADAED047ACDED907AD0ED047A6D
:101C7000DDF8F4C4DDF8FCE4CDEDD27AD9EDF17AEB
:101C8000CDED917AD9EDF97ADDF8DC74CDED927A6B
:101C9000D7ED007ACDED937AD1ED057ACDED947A3A
:101CA000D2ED057ACDED957AD3ED057ACDED967A24
:101CB000DBED057ACDED977ADAED057ACDED987A00
:101CC000D0ED057ACDEDD37AD9EDAE7ACDED397A76
:101CD000D9EDB87ACDED3A7AD9EDC27ACDED3B7A2D
:101CE000D9EDCC7ACDED3C7AD9EDD67ACDED3D7AF1
:101CF000D9EDE07A09F21C56CDED3E7AD6ED007AA8
:101D0000CDEDC67AD9EDAF7ACDED3F7AD9EDB97A7E
:101D1000CDED407AD9EDC37ACDED417ADFED567A3B
:101D20000DF2A440C0ED007AD9EDCD7ACDED427A26
:101D3000D9EDD77ACDED437AD9EDE17ACDED447A7C
:101D4000D6ED017ACDEDC77AD9EDB07ACDED457AF1
:101D5000D9EDBA7ACDED467AD9EDC47ACDED477A90
:101D6000D9EDCE7ACDED487AD9EDD87ACDED497A54
:101D7000D9EDE27ACDED4A7AD6ED027ACDEDC87A88
:101D8000D9EDB17ACDED4B7AD9EDBB7ACDED4C7A68
:101D9000D9EDC57ACDED4D7AD9EDCF7ACDED4E7A2C
:101DA000D9EDD97ACDED4F7AD9EDE37ACDED507AF0
:101DB000D6ED037ACDEDC97AD9EDB27ACDED517A6F
:101DC000D9EDBC7ACDED527AD9EDC67ACDED537A04
:101DD000D9EDD07ACDED547AD9EDDA7ACDED557AC8
:101DE000D9EDE47ACDED567AD6ED047ACDEDCA7A06
:101DF000D9EDB37ACDED577AD9EDBD7ACDED587ADC
:101E0000D9EDC77ACDED597AD9EDD17ACDED5A7A9F
:101E1000D9EDDB7ACDED5B7AD9EDE57ACDED5C7A63
:101E2000D6ED057ACDEDCB7AD9EDB47ACDED5D7AEC
:101E3000D9EDBE7ACDED5E7AD9EDC87ACDED5F7A77
:101E4000D9EDD27ACDED607AD9EDDC7ACDED617A3B
:101E5000D9EDE67ACDED627AD6ED067ACDEDCC7A83
:101E6000D9EDB57ACDED637A08E000BF4C2A0410B5
:101E7000749C0020602A041000000000D9EDBF7A95
:101E8000CDED647AD9EDC97ACDED657AD9EDD37A05
:101E9000CDED667AD9EDDD7ACDED677AD9EDE77AC9
:101EA000CDED687AD6ED077ACDEDCD7AD9ED747A9D
:101EB000CDED0F7AD9ED7C7ACDED107AD9ED847A1B
:101EC000CDED117AD9ED8C7ACDED127AD9ED947AE7
:101ED000CDED137AD9ED9C7ACDED147AD9EDA47AB3
:101EE000DDF8E004CDED157AD0ED007ACDEDC07AC5
:101EF000D9ED757ACDED167AD9ED7D7ACDED177ADB
:101F0000D9ED857ACDED187AD9ED8D7ACDED197AA6
:101F1000D9ED957ACDED1A7AD9ED9D7ACDED1B7A72
:101F2000D9EDA57ACDED1C7AD0ED017ACDEDC17A4F
:101F3000D9ED767ACDED1D7AD9ED7E7ACDED1E7A8A
:101F4000D9ED867ACDED1F7AD9ED8E7ACDED207A56
:101F5000D9ED967ACDED217AD9ED9E7ACDED227A22
:101F6000D9EDA67ACDED237AD0ED027ACDEDC27A05
:101F7000D9ED777ACDED247AD9ED7F7ACDED257A3A
:101F8000D9ED877ACDED267AD9ED8F7ACDED277A06
:101F9000D9ED977ACDED287AD9ED9F7ACDED297AD2
:101FA000D9EDA77ACDED2A7AD0ED037ACDEDC37ABB
:101FB000D9ED787ACDED2B7AD9ED807ACDED2C7AEA
:101FC000D9ED887ACDED2D7AD9ED907ACDED2E7AB6
:101FD000D9ED987ACDED2F7AD9EDA07ACDED307A82
:101FE000D9EDA87ACDED317AD0ED047ACDEDC47A71
:101FF000D9ED797ACDED327AD9ED817ACDED337A9A
:10200000D9ED897ACDED347AD9ED917ACDED357A65
:10201000D9ED997ACDED367AD9EDA17ACDED377A31
:10202000D9EDA97ACDED387AD0ED057ACDEDC57A26
:10203000D9ED0A7ACDEDF57AD9ED147ACDEDF67AAF
:10204000D9ED1E7A09F59665CDEDF77AD5ED007AD2
:10205000CDEDF87AD9ED0B7ACDEDF97AD9ED157A87
:10206000CDEDFA7AD9ED1F7ACDEDFB7AD5ED017A77
:10207000CDEDFC7AD9ED0C7ACDEDFD7AD9ED167A5D
:10208000CDEDFE7AD9ED207ACDEDFF7AD5ED027A4D
:102090000DF58060C0ED007AD9ED0D7A0DF20440A7
:1020A000C0ED007AD9ED177A0DF58160C0ED007AA8
:1020B000D9ED217A0DF20C40C0ED007AD5ED037A0E
:1020C0000DF58260C0ED007AD9ED0E7A0DF2144064
:1020D000C0ED007AD9ED187A0DF58360C0ED007A75
:1020E000D9ED227A0DF21C40C0ED007AD5ED047ACC
:1020F0000DF58460C0ED007AD9ED0F7A0DF2244021
:10210000C0ED007AD9ED197A0DF58560C0ED007A41
:10211000D9ED237A0DF22C40C0ED007AD5ED057A89
:102120000DF58660C0ED007AD9ED107A0DF23440DD
:10213000C0ED007AD9ED1A7A0DF58760C0ED007A0E
:10214000D9ED247A0DF23C40C0ED007AD5ED067A47
:102150000DF58860C0ED007AD9ED117A0DF244409A
:10216000C0ED007AD9ED1B7A0DF58960C0ED007ADB
:10217000D9ED257A0DF24C40C0ED007AD5ED077A05
:102180000DF58A60C0ED007AD9ED2A7ACDED997A05
:10219000D9ED337ACDEDD47AD9ED3C7ACDEDD57A3F
:1021A000D9ED457ACDEDD67AD9ED4E7ACDEDD77A07
:1021B000D9ED577ACDEDD87AD9ED607ACDEDD97ACF
:1021C000D9ED697A09F59B68CDEDDA7AD8ED007A18
:1021D000CDEDDB7AD9ED2B7ACDEDDC7AD9ED347A01
:1021E000CDEDDD7AD9ED3D7ACDEDDE7AD9ED467AC9
:1021F000CDEDDF7AD9ED4F7ACDEDE07AD9ED587A91
:10220000CDED9A7AD9ED617ACDED9B7AD9ED6A7AE6
:10221000CDED9C7AD8ED017ACDEDE17AD9ED2C7A2D
:10222000CDEDE27AD9ED357ACDED9D7AD9ED3E7AD4
:10223000CDED9E7AD9ED477ACDED9F7AD9ED507AE2
:10224000CDEDA07AD9ED597ACDEDA17AD9ED627AAA
:10225000CDEDA27AD9ED6B7ACDEDA37AD8ED027AE5
:10226000CDEDE37AD9ED2D7ACDEDE47AD9ED367A5C
:10227000CDEDA47AD9ED3F7ACDEDA57AD9ED487AA6
:10228000CDEDA67AD9ED517ACDEDA77AD9ED5A7A6E
:10229000CDEDA87AD9ED637ACDEDA97AD9ED6C7A36
:1022A000CDEDAA7AD8ED037ACDEDE57AD9ED2E7A87
:1022B000CDEDE67AD9ED377ACDEDAB7AD9ED407A2E
:1022C000CDEDAC7AD9ED497ACDEDAD7AD9ED527A32
:1022D000CDEDAE7AD9ED5B7ACDEDAF7AD9ED647AFA
:1022E000CDEDB07AD9ED6D7ACDEDB17AD8ED047A35
:1022F000CDEDE77AD9ED2F7ACDEDE87AD9ED387AC0
:10230000CDEDB27AD9ED417ACDEDE97AD9ED4A7ABF
:10231000CDEDEA7AD9ED537ACDEDEB7AD9ED5C7A51
:10232000CDEDEC7AD9ED657ACDEDED7AD9ED6E7A19
:10233000CDEDEE7AD8ED057ACDEDEF7AD9ED307AA4
:10234000CDEDB37AD9ED397ACDEDB47AD9ED427AC3
:10235000CDEDB57AD9ED4B7ACDEDB67AD9ED547A8B
:10236000CDEDB77AD9ED5D7ACDEDB87AD9ED667A53
:10237000CDEDB97AD9ED6F7ACDEDF07AD8ED067A58
:10238000CDEDF17ADDF8F004644600EB80000CEB53
:102390008000CDF8E404DC46504693468A46B7EE0A
:1023A00000FA7746B0EE418A01466246D4ED049ABF
:1023B0009DEDF56AF0EE6F7A94ED059AE9EE867A76
:1023C0009DEDF67AD4ED068AE9EE077ADDEDF76A3F
:1023D0009DEDF85AE8EEA67A77EE857A17EE900A28
:1023E000CDF8D814CDF8D424CDF8D03405F05AFD6A
:1023F0009DEDF95AF0EE6F7ADDEDFA4AE9EE857A55
:102400009DEDFB4AE9EE247ADDEDFC3AE8EE847AB4
:1024100077EEA37A0AEE100A17EE900A05F042FD55
:10242000DDEDFD3AF0EE6F7A9DEDFE3AE9EEA37A2E
:10243000DDEDFF2AE9EE037A0DF58063E8EEA27A7E
:1024400093ED002A77EE827A0AEE900A17EE900A50
:1024500005F028FD0DF2044393ED002AF0EE6F7AAB
:102460000DF58163E9EE827AD3ED001A0DF20C438B
:1024700093ED001AE9EE217A0DF58263E8EE817A98
:10248000D3ED000A77EEA07A0BEE100A17EE900A51
:1024900005F008FD0DF21443D3ED000AF0EE6F7A5B
:1024A0000DF5836393ED000AE9EEA07A0DF21C436B
:1024B000E9EE007A93ED00CA0DF58463D3ED00CA0E
:1024C000E8EE8C7A77EEAC7A0BEE900A17EE900A73
:1024D00005F0E8FC0DF22443D3ED00CAF0EE6F7A6C
:1024E0000DF5856393ED00DAE9EEAC7A0DF22C433D
:1024F000D3ED00DAE9EE0D7A0DF5866393ED00EA8F
:10250000E8EEAD7A77EE8E7A0CEE100A17EE900AAE
:1025100005F0C8FC0DF2344393ED00EAF0EE6F7A5B
:102520000DF58763D3ED00EAE9EE8E7A0DF23C43B8
:1025300093ED007AE9EE2E7A0DF58863D3ED006A0B
:10254000E8EE877A77EEA67A0CEE900A17EE900AFC
:1025500005F0A8FC0DF24443D3ED007AF0EE6F4A8B
:10256000E9EEA74A0DF58963D3ED009AF0EE647A9F
:102570000DF24C4393ED005AE9EE297A0DF58A638A
:10258000E8EE857AD3ED008A77EEA87A09EE100A94
:1025900017EE900A05F086FCDDED993AF0EE6F7AC1
:1025A0009DEDD43AEAEE237ADDEDD52AEAEE837A80
:1025B000DDEDD66AEBEE227ADDEDD71AEBEEA67AE8
:1025C0009DEDD86AECEE217ADDEDD95AECEE867AF3
:1025D000F0EE498AE9EE257A9DEDDA7A09EE100AE5
:1025E000DDEDDB4AE9EE077A77EEA47A17EE900A82
:1025F00005F058FCDDEDDC4AF0EE6F7A9DEDDDDA9A
:10260000EAEE247ADDEDDEDAEAEE8D7A9DEDDFEAA0
:10261000EBEE2D7ADDEDE0EAEBEE8E7A9DED9A1A87
:10262000ECEE2E7A9DED9B4AECEE817ADDED9C0A74
:10263000E8EE847A9DEDE11AE9EE207A77EE817A70
:1026400009EE900A17EE900A05F02CFC9DEDE20AC7
:10265000F0EE6F7A9DED9D7AEAEE007ADDED9E6AEE
:10266000EAEE877A9DED9F6AEBEE267ADDEDA04AD1
:10267000EBEE867A9DEDA11AECEE247A9DEDA22A6E
:10268000ECEE817A9DEDA35AE8EE827A9DEDE33A75
:10269000E9EE057A77EE837A0DEE900A17EE900A4E
:1026A00005F000FCDDEDE45AF0EE6F7A9DEDA43A02
:1026B000EAEE257ADDEDA52AEAEE837ADDEDA61AAB
:1026C000EBEE227A9DEDA7DAEBEEA17ADDEDA8EA3A
:1026D000ECEE0D7A9DEDA97AECEEAE7ADDEDAA6A0C
:1026E000E8EE877ADDEDE52AE9EE267A77EEA27A42
:1026F0000EEE100A17EE900A05F0D4FB9DEDE61AD7
:10270000F0EE6F7A9DEDAB6AEAEE017ADDEDAC4A50
:10271000EAEE867A9DEDAD2AEBEE247A9DEDAE5A77
:10272000EBEE827ADDEDAF5AECEE057A9DEDB00A64
:10273000ECEEA57A9DEDB13AE8EE807ADDEDE71A90
:10274000E9EE037A77EEA17A0EEE900A17EE900A80
:1027500005F0A8FBDDEDE87AF0EE6F2AEAEE272A15
:10276000F0EE627ADDEDB22ABF90EAEEA27ADDEDFC
:10277000E91A9DEDEADAEBEE217A9DEDEB6AEBEEDC
:102780008D7ADDEDEC4AECEE067ADDEDED0AECEE4D
:10279000A47A9DEDEE2AE8EEA07A9DEDEF4AE9EEEF
:1027A000027A77EE847A17EE900A05F07BFB9DEDB6
:1027B000B30AF0EE6F7ADDEDB46AEAEE007A0DF559
:1027C0008E63C3ED00AAEAEEA67ADDEDB5AA0DF29E
:1027D000744383ED00BAEBEE2A7A9DEDB6BA0DF59F
:1027E0008F63C3ED00BAEBEE8B7ADDEDB7BA0DF275
:1027F0007C4383ED00CAECEE2B7A9DEDB8CA0DF553
:102800009063C3ED00CAECEE8C7ADDEDB9CA0DF22F
:102810008443C3ED008AE8EEAC7ADDEDF08A0DF575
:10282000916383ED009AE9EE287A9DEDF19A77EEB7
:1028300089AA8DEDBEAA0AEE100A1AEE900A05F0DA
:1028400031FBB0EE69DAF0EE6FAADDED0F9AEDEE36
:1028500029AA9DED109AF0EE6A7ADDED118AEDEE6F
:10286000897ADDED12AAEEEE287ADDED131ADDEDA0
:10287000BF9AEEEEAA7AF0EE4ABAE9EEA17A9DEDA1
:1028800014AA0CEE100AEBEE8A7A9DED15AADDED86
:10289000C0AAECEE0A7A37EEAAAA1AEE100A05F0E0
:1028A00001FBB0EE6FAA9DED163AADEE03AA9DEDC9
:1028B000179AF0EE4A7A9DED18BAEDEE897ADDEDC1
:1028C00019AAEEEE0B7ADDED1A0AEEEEAA7ADDED2C
:1028D0001B2AE9EEA07A9DED1C2AEBEEA27A9DED73
:1028E000C1AAECEE027A37EE8AAA08EE900A1AEE36
:1028F000100A05F0D7FAB0EE6FAA9DED1D1AADEEE5
:1029000001AAF0EE4A7A9DED1EAA9DED1F7AEDEE2A
:102910008A7A9DED200AEEEE077AB0EE69BAEEEE05
:10292000807ADDED219AEBEE297ADDED229AEBEE4D
:10293000A97ADDED239ADDEDC2AAECEE297A37EE15
:10294000AAAA09EE100A1AEE100A05F0ABFAB0EEC8
:102950006FAA9DED243AADEE03AADDED251AF0EE47
:102960004A7A9DED265AEDEEA17ADDED275AEEEE7C
:10297000057ADDED28AAEEEEA57ADDED290AEBEE6B
:102980002A7A9DED2A4AEBEEA07A9DEDC3AAECEEE1
:10299000047A77EE8A2A09EE900A12EE900A05F080
:1029A00081FADDED2B2AB0EE6F2AADEE222AF0EE91
:1029B000427A9DED2C2A9DED2D1AEDEE827A9DED49
:1029C0002E3AEEEE017A9DED2F0AEEEE837ADDEDE2
:1029D000301AEBEE007A9DED315AEBEEA17A9DEDC7
:1029E000C47AECEE057A77EE874A0AEE100A14EE06
:1029F000900A05F057FA0DF28C4383ED00DAF0EE01
:102A00006F4ADDED326AEDEE264A9DED337AF0EE47
:102A1000647A9DED346AEDEE877ADDED355AEEEE9F
:102A2000067AB0EE4B2AEEEEA57A9DED36BA0DF59C
:102A30009263C3ED00DA0DF2944383ED00EA0DF5E5
:102A40009363C3ED00EA0DF29C43E2EE0B7AF0EEE5
:102A50006B1AC3ED00BADDED37BADDED384AE1EEB1
:102A6000AB7ADDEDC5BAECEE247A77EEABDA0AEE9E
:102A7000900A0DF594631DEE900A83ED00CAF0EE06
:102A80006FDA05F00FFADDED39CAE8EEACDAF0EEF8
:102A90006D7ADDED3ADA9DED3BEAE9EE2D7A9DEDBA
:102AA0003C4AE9EE8E7ADDED3DBAEAEE047A0BEEB1
:102AB000100ADDED3E0AEAEEAB7A9DEDC60AEBEEBA
:102AC000207A37EE804A14EE100A05F0EBF99DEDFE
:102AD0003F0AF0EE6F7A9DED405AE8EE807A9DED68
:102AE000416AE9EE057ADDED425AE9EE867A9DED1E
:102AF00043CAEAEE257ADDED44CAEAEE8C7A9DED12
:102B0000C74AEBEE2C7A77EE84BA0EEE900A1BEEF3
:102B1000900A05F0C7F99DED454AF0EE6F7ADDEDBC
:102B200046BAE8EE847ADDED472AE9EE2B7A9DED90
:102B3000487AE9EEA27ADDED496AEAEE077ADDED40
:102B40004A0AEAEEA67ADDEDC8DAEBEE207A77EEF5
:102B5000AD7A0CEE900A17EE900A05F0A3F99DED00
:102B60004BEAF0EE6F7A9DED4C1AE8EE8E7A9DED11
:102B70004D0AE9EE017A9DED4E5AE9EE807A9DED1F
:102B80004FCAEAEE057A9DED504AEAEE8C7ADDED09
:102B9000C9BAEBEE047A77EEAB7A0DEE900A17EE37
:102BA000900A05F07FF9DDED517AF0EE6F2AE8EE3C
:102BB000A72ADDED52BAF0EE627ADDED531AE9EEA6
:102BC0002B7ADDED542AE9EEA17A9DED557AEAEEF5
:102BD000227ADDED566AEAEE877A9DEDCA1AEBEEAF
:102BE000267A77EE817A0EEE100A17EE900A05F03B
:102BF00059F99DED576AF0EE6F7ADDED585AE8EE1F
:102C0000867A9DED591AE9EE257A9DED5A0AE9EE8C
:102C1000817A9DED5B2AEAEE007A9DED5C5AEAEE40
:102C2000827ADDEDCB2AEBEE057A77EEA27A0DEE15
:102C3000100A17EE900A05F035F9DDED5D7AF0EE39
:102C40006F4AE8EEA74ADDED5E0AF0EE647A9DED8C
:102C50005FCAE9EE207A9DED604AE9EE8C7ADDEDFF
:102C6000611AEAEE047A9DED627AEAEEA17ADDED70
:102C7000CC4AEBEE077A77EEA47A0BEE900A17EEC9
:102C8000900A05F00FF9DDED636AF0EE6F7A0DF54D
:102C90008B63C3ED008AE8EEA67ADDED648A0DF25F
:102CA0005C4383ED009AE9EE287A9DED659A0DF577
:102CB0008C63C3ED009AE9EE897ADDED669ADDED6D
:102CC000678AEAEE297A0DF2644383ED00AAEAEE00
:102CD000A87A9DED68AA9DEDCD9AEBEE0A7A77EE83
:102CE000898A0DF58D630CEE100AC3ED00AA18EE6B
:102CF000900A0DF26C4383ED00BAF0EE6F8A05F096
:102D0000D1F89DED699AEEEE898ADDED6A9AF0EED2
:102D1000687ADDED6BAAECEEA97ADDED6C8AEDEE5A
:102D2000AA7A9DED6DAAEEEE287A9DED6EBAEDEED3
:102D30000A7ADDED6FAAEBEE8B7A00EE100AECEE6C
:102D40002A7A9DED709ADDEDCE8AE0EE097A77EE73
:102D5000A88A0AEE900A18EE900A05F0A3F89DEDF5
:102D6000716AF0EE6F7ADDED725AEEEE867ADDED85
:102D7000738AECEEA57A9DED74AAEDEEA87A9DED2E
:102D8000751AEEEE0A7A9DED765AEDEE017ADDEDDA
:102D9000773AEBEE857A9DED780AECEE237A9DED9D
:102DA000CF9AEAEE807A77EE897A0BEE100A17EE68
:102DB000900A05F077F8F0EE6F8ADDED797AEEEEA5
:102DC000A78A9DED7A4AF0EE687A9DED7B9AECEE4B
:102DD000847ADDED7C1AEDEE897A9DED7D7AEEEE5A
:102DE000217ADDED7E6AEDEE077A9DED7F6AEBEEEE
:102DF000A67ADDED809AECEE067AEAEEA97ADDEDB0
:102E0000D09A77EEA98A0AEE100A18EE900A05F019
:102E100049F8DDED819AF0EE6F7ADDED825AEEEE43
:102E2000A97ADDED838AECEEA57A9DED842AEDEE9C
:102E3000A87A9DED855AEEEE027ADDED863AEDEE4A
:102E4000057A9DED871AEBEEA37A9DED884AECEEAC
:102E5000017ADDEDD10AEAEE847A77EEA07A09EE06
:102E6000900A17EE900A05F01DF8DDED897AB0EEB4
:102E70006F2AAEEEA72ADDED8A2AF0EE427ADDED6A
:102E80008B1AECEEA27A9DED8C7AEDEEA17ADDED57
:102E90008D6AEEEE077A9DED8E6AEDEE267A9DED57
:102EA0008F0AEBEE867A9DED902AECEE007ADDED4E
:102EB000D28AEAEE827A77EEA87A09EE100A17EE45
:102EC000900A04F0EFFFDDED917AB0EE6F2AAEEEDE
:102ED000A72ADDED920AF0EE427ACDEDF3EAECEEB0
:102EE000A07ACDEDBCCACDEDBDDADDED935A9DEDF6
:102EF000945AEDEEA57ADDED950AEEEE057AF0EE48
:102F00006B2AEDEE207ACDED0EBADDED96BAB0EE7D
:102F10004C7AE2EEAB7A8DED0BCA9DED97CA9DED32
:102F2000981AE7EE0C7A9DEDD32AEAEE817A77EED5
:102F3000827A203708EE900A17EE900A8DEDF4EAB7
:102F40008DED0DDACDED0CAA04F0ACFF17ED04EA1F
:102F500057ED03DA7BEE4E4AF0EE6F7A3AEE6D5A99
:102F6000E4EEA47A17ED02DAE5EE057A79EECD5AB1
:102F700057ED01CA844639EE6C6AE5EEA57A97ED05
:102F800000CA0AEE90CAE6EE067A97ED017A78EE6C
:102F9000CC6AE6EEA67A7AEEC76AB1EE084AE6EEA9
:102FA000A67A0DF2A44377EE6ABA87EE847AD3ED5F
:102FB000007A77EE877A1BEE100AC3ED007A04F0F0
:102FC00071FF7DEECADA07EE900A1AEE100AB0EE33
:102FD0004FAA3EEE4BEAA7EEE7AA04F063FF2EEEFF
:102FE0000AEA07EE900AB0EE4FAA19EE900AA7EE91
:102FF000E7AA04F057FF6DEE8ADA07EE900AB0EE0A
:103000004FAA19EE100AA7EEE7AA3DEE69DA04F01E
:1030100049FF2DEE0ADA07EE900AB0EE4FAA18EE3D
:10302000900AA7EEE7AA7CEEC9CA04F03BFF6CEE5B
:103030008ACA07EE900AB0EE4FAA3CEE68CAA7EE25
:10304000E7AA1AEE900A04F02DFF2CEE0ACA9DEDB5
:10305000699AB0EE6FAAAEEE09AA07EE900AF0EEFA
:103060004AEAB0EE4FAAA7EEE7AADDED717ADDEDF0
:10307000799AEDEEA7EADDED817AEDEE29EA9DED94
:1030800089BAECEEA7EA6BEE8ABADDED910AECEEB6
:103090000BEAF398EBEEA0EAB0EE6FAA04F002FFA1
:1030A000DDED6A9AAEEE29AA07EE900ADDED729A7E
:1030B000F0EE4A8AB0EE4FAAEDEEA98AA7EEE7AA93
:1030C000BC989DED7A6A6EEE8A0AEDEE068ADDED19
:1030D000825AF0EE609AECEEA58ADDED8A0A9DED4B
:1030E00092AAECEE208AB0EE6F9A04F0DBFEEBEED3
:1030F0008A8A9DED6BAA9DED736A07EE900AAEEE8B
:103100000A9AB0EE4F4AADEE869AA7EEE74ADDED99
:103110007B5A68EE840AADEE259ADDED838ADDEDFB
:103120008B7AACEEA89ABD98B0EE60AAACEE279A66
:103130009DED93BA04F0B6FEABEE8B9A07EE900AC3
:103140009DED6CBAF0EE6F8AB0EE4F4ADDED745A29
:10315000A7EEE74AEEEE0B8A69EE040AEDEEA58AC9
:10316000DDED7C7AF0EE60EAEDEE278ADDED840A93
:103170009DED8C9AECEEA08ADDED941AECEE098AB6
:10318000F498EBEEA18A04F08DFEB0EE6F9A07EE94
:10319000900ADDED6DAAB0EE4F4A9DED751AA7EECF
:1031A000E74AAEEE2A9A68EE840AADEE819ADDED2A
:1031B0007D8A9DED854AADEE289ADDED8D1AACEE47
:1031C000849A9DED955AACEE219A0D98B0EE60BAB6
:1031D000ABEE859A04F066FEF0EE6F8A9DED6E6AA6
:1031E00007EE900AF0EE4F2AEEEE068AE7EEE72AA7
:1031F000DDED767A0E98EDEEA78A9DED7E5A69EEAA
:10320000220AEDEE058A9DED869A9DED8E2AECEE62
:10321000898ADDED963AECEE028AF0EE60AAEBEEDA
:10322000A38A04F03FFEB0EE6F9ADDED6F5A07EE11
:10323000900AB0EE4F7A9DED775AAEEE259AA7EE42
:10324000E77AADEE859A68EE870ADDED7F8ADDEDDF
:10325000871AADEE289A9DED8F7AACEEA19A9DED7E
:10326000971AACEE079A0B98ABEE819ACDED050A52
:1032700004F018FEDDED708AF0EE6F2A07EE900A7A
:10328000EEEE282AF0EE4F6AF0EE628AE7EEE76A89
:103290009DED780AEDEE808A29EE260A9DED809A52
:1032A0009DED887AEDEE098ADDED906AECEE878A75
:1032B0009DED984AECEE268A0C98EBEE848A8DED13
:1032C000060A04F0EFFDB0EE6F9A9DED394A07EE65
:1032D000900AF0EE4F2AA9EE849AE7EEE72ADDED98
:1032E0003F7AAAEE279A68EEA27ADDED458AAEEE25
:1032F000A89ADDED4B8AABEE289ADDED518ADDED23
:10330000053AAAEEA89ADDED578A0DF58B639DED7F
:10331000063AA3EEA89A18688DED08BACDED09AA71
:10332000DDED5D8A9DED636AA3EE289ACDED0A7A04
:10333000A7EE869A04F0B6FDDDED3A8AF0EE6F6AEC
:10334000E9EEA86A07EE900AF0EE668AF0EE4F6AA0
:10335000F0EE69AAE7EEE76ADDED409A69EE260A2B
:10336000EAEE298A9DED469AF0EE609AEEEE898AA1
:10337000DDED080A9DED4C9A9DED090AE0EE898A83
:103380009DED529AB0EE4ABAE0EE098ADDED053ABB
:103390009DED58AADDED062AE3EE8A8A9DED5E9A40
:1033A000DDED645AE2EE898ADDED0A7A0DF25C43C6
:1033B0001868E7EEA58A04F075FD9DED3B9AF0EEE6
:1033C0006F6AEAEE896A07EE900AB0EE669AF0EE4E
:1033D0004F6A9DED416AE7EEE76AABEE069A68EE4A
:1033E000A60ADDED478A9DED080A9DED4D5AAEEE29
:1033F000A89ADDED093AA0EE059A9DED531ADDED90
:10340000591AA3EE819A9DED053A9DED5F6AA3EEF0
:10341000219ADDED062A0DF58C63A2EE869A9DEDCC
:103420000A7A1868CDEDBBEA9DED651AB0EE60AA88
:10343000A7EE019A04F036FDDDED3C8AF0EE6F6AEE
:10344000EAEEA86A07EE900AF0EE668AF0EE4F6A9E
:10345000E7EEE76ADDED425A69EE260AEBEE258AD1
:10346000F0EE60EA9DED489ADDEDBB0A9DED4E4A17
:10347000E0EE898A9DED080A9DED093AE0EE048AA6
:103480009DED545ADDED052AE3EE058A9DED5A0ABD
:10349000DDED605AE2EE808ADDED067A9DED0A7A76
:1034A000E7EEA58ADDED667A0DF264431868E7EE73
:1034B000278A04F0F7FC9DED3D9AF0EE6F6AEAEE84
:1034C000896A9DED435A07EE900AB0EE669AF0EED7
:1034D0004F6AABEE059A9DED494AE7EEE76A9DED2E
:1034E000BB0ADDED083A68EEA60AA0EE049ADDED0F
:1034F0004F6A9DED093AA3EEA69A9DED550ADDEDC2
:103500005B5AA3EE009ADDED052ADDED066AA2EE18
:10351000A59ADDED617A0DF58D63A6EEA79ACDED46
:10352000030A18689DED0A6A9DED672AA6EE029AC5
:1035300004F0B8FC9DED3E5AB0EE6F7AAAEE857AA3
:103540009DED444AF0EE478A9DEDBB3AEBEE048ACE
:10355000DDED4A0A0DF2AC43C3ED00AAE3EE208A8A
:10356000DDED082A07EE900ADDED50AAB0EE4F7AA5
:103570000DF26C4318680DF59663E2EEAA8AA7EE89
:10358000E77A83ED00BADDED097A9DED56BA29EEB2
:10359000070AE7EE8B8A9DED057ADDED5CAADDED8D
:1035A000066A9DED621AE7EE2A8A9DED0A6AE6EE4A
:1035B000818A9DED687AB0EE409AE6EE078A04F0C3
:1035C00071FCDDED0FAAF0EE6F6AE9EEAA6A07EE74
:1035D000900AB0EE66BA9DED165AB0EE4F7A9DEDA8
:1035E0001D1AA7EEE77AAAEE05BA28EE870AAEEE14
:1035F00081BADDED038ADDED245A9DED2B4AA8EE5C
:10360000A5BADDED320AA9EE04BA0DF28C431868B2
:10361000A0EE20BA8DED040A04F044FCDDED100AA2
:10362000F0EE6F6AE9EEA06AF0EE6EAADDED175AD1
:10363000F0EE66EA9DED1E4AEAEE25EA0DF592638C
:1036400007EE900AEAEE84EA18689DED255AF0EE3E
:10365000490AE8EE85EA8DED079AB0EE4F7A9DEDC6
:103660002C9AA7EEE77AE0EE89EA9DED040A9DED3B
:10367000339A2BEE07BAE0EE09EA04F013FC9DED55
:10368000115AB0EE6F7AA9EE857A07EE900AB0EE85
:10369000479AB0EE4F7A9DED184AA7EEE77AAAEE68
:1036A000049A6EEE87EA9DED1F7AF0EE680AAAEEA4
:1036B000879ADDED268A9DED070AA0EEA89ADDED3A
:1036C0002D8AA0EE289A9DED040ADDED348A0DF2D4
:1036D00094431868A0EE289A04F0E4FBDDED125A3A
:1036E000B0EE6F2AA9EEA52A07EE900AF0EE428A04
:1036F000B0EE4F2A9DED191AA7EEE72AEAEE018AED
:1037000069EE020AB0EE6A9ADDED20AADDED271A15
:10371000E9EE2A8A8DEDBAAAB0EE60AADDED030AC1
:10372000DDED077AE0EEA18A9DED2E2A9DED047A6B
:10373000E7EE828ADDED35AA0DF593631868E7EEB2
:103740002A8A04F0AFFBF0EE69AAB0EE6F2ADDED35
:10375000139AAAEEA92A07EE900AF0EE429AB0EE6A
:103760004F2A9DEDBA0ADDED1A1AA7EEE72AE0EE20
:10377000219A68EE820AF0EE498A9DED219ACDEDFC
:10378000010AE8EE899ABF98DDED037A9DED289A4B
:103790009DED077AE7EE899A9DED2F9ADDED046A9B
:1037A000E7EE099A9DED362AE6EE829A04F07AFB5E
:1037B0009DED149AB0EE6F7AAAEE897A9DED1B2AE0
:1037C0009DEDBA0A07EE900AB0EE479AB0EE4F7A36
:1037D0000DF29C4318680DF25443A0EE029AA7EE36
:1037E000E77AC3ED008AF0EE687ADDED228A69EEB1
:1037F000879AA7EEA89A9DED037ADDED298ADDED83
:10380000076AA7EE289ADDED300A9DED046AA6EE60
:10381000A09ADDED371AA6EE219A04F043FBDDED08
:10382000158AB0EE6F7AAAEEA87A07EE900AF0EE4B
:10383000478AB0EE4F7A0DF59563C3ED00AAA7EE67
:10384000E77A9DEDBA1A9DED1C4A0DF59463186850
:103850000DF2544329EE079AE1EE048A93ED007AC3
:10386000DDED231ADDED036AE7EE218ADDED2A0A9C
:103870009DED076AE6EEA08A9DED310ADDED045A62
:10388000E6EE008A9DED385AE5EE858A04F00AFBE3
:103890009DED995AB0EE6F0AABEE050A07EE900A5D
:1038A000F0EE40AAB0EE4F0A9DEDDC4AA7EEE70A23
:1038B000EEEE84AA68EE808A9DEDE20ADDEDE40A70
:1038C000EAEE00AA9DED011AE1EE20AA9DEDE61AAE
:1038D000DDEDE81AE9EE81AADDEDB35AE9EE21AAA1
:1038E000BE98E8EEA5AA04F0DDFA9DEDD44AB0EE4C
:1038F0006F0AABEE040ADDEDDD0AF0EE407A9DEDD5
:103900009D2AEEEEA07A8DED02AAEAEE027ADDEDB6
:10391000010A9DEDA4AADDEDAB5AE0EE8A7A9DED99
:10392000B2AAE9EEA57AE9EE0A7A9DEDB4AA07EE0D
:10393000100AE8EE8A7AB0EE4F0A0DF58E63A7EE14
:10394000470A186817EE903A6AEE80AACDF8B434A8
:10395000B0EE6FAA04F0A6FA9DEDD52A9DEDDE5AD1
:10396000ABEE02AA9DED021ADDED9E1AAEEE85AA1F
:10397000DDEDA55A07EE100AA1EE21AADDED010A40
:10398000F0EE4F2A0DF2744318680DF2B443D3EDF4
:10399000007AA0EEA5AA9DEDAC5AE7EE472AA9EE63
:1039A00085AADDEDE94A67EEA22AA9EE24AAC3EDB5
:1039B000002ADDEDB52AA8EEA2AA04F073FADDED27
:1039C000D61A07EE100AF0EE6F2AF0EE4F6AEBEE11
:1039D000212AE7EE476A9DEDDF0A2AEE26AAF0EEDD
:1039E000627A0DF58F6318680DF59763EEEE807AB5
:1039F0009DED021A83ED00AA9DED9FAADDED010A5F
:103A0000E1EE0A7A9DEDA6AAE0EE8A7A9DEDADAAD6
:103A10009DEDEA6AE9EE8A7ADDEDB61AE9EE067AFC
:103A2000E8EEA17A17EE903ACDF8BC3404F03AFAF9
:103A30009DEDD7AAF0EE6F6AEBEE0A6A9DEDE05AB3
:103A4000B0EE66AADDEDA05A9DED021AAEEE85AA93
:103A5000DDED010AA1EE25AADDEDA74A07EE100A69
:103A6000A0EEA4AA9DEDAE6AF0EE4F6A0DF27C4383
:103A700018680DF2BC43D3ED007AA9EE86AADDEDFD
:103A8000EB2AE7EE476AA9EE22AA67EEA66A9DED49
:103A9000B75AC3ED006AA8EE85AA04F003FA9DEDBB
:103AA000D85AF0EE6F6AEBEE056A9DED9A4AB0EED9
:103AB000667A9DEDA16AAEEE847A9DED021ADDED87
:103AC000010AA1EE067A9DEDA81A0DF5906307EEA6
:103AD000900AA0EE817A1868F0EE4F6ADDEDAF4AE9
:103AE000E7EEE76AA9EEA47ADDEDEC2A2AEE26AA33
:103AF000A9EE227ADDEDB86AA8EEA67A17EE103AA2
:103B0000CDF8C03404F0CEF9DDEDD95AB0EE6F0A2D
:103B1000ABEE250ADDED9B5AF0EE407ADDEDA24AD0
:103B2000EEEEA57A9DED021A06EE900AB0EE4F0A6F
:103B3000E1EE247ADDED010AA6EEE60ADDEDA96AE2
:103B40000DF2844318680DF5986393ED007ADDED6E
:103B5000B02AE0EEA67A27EE000AE9EEA27A9DED01
:103B6000ED2A83ED000AE9EE027A9DEDB90AE8EE4E
:103B7000807A17EE903ACDF8C43404F093F99DEDB5
:103B8000DA4AB0EE6F7A06EE900AABEE047ADDED1B
:103B90009C0AB0EE4F0A9DED021AAEEEA07AA6EE98
:103BA000E60ADDEDA36A0DF5916318680DF2C443D2
:103BB000D3ED007AA1EE267ADDED010A27EE800A28
:103BC000F0EE477A9DEDAA7A9DEDB12AE0EE877A74
:103BD000DDEDEE1AE9EE827AE9EE217A83ED000A54
:103BE0009DEDF03AB0EE670AA8EE830A0DF59963F1
:103BF00083ED000A04F056F90DF2CC4318600DF580
:103C000095639DED021AD3ED007A0DF2544368EEF0
:103C1000010A28EE275A9DED011ADDEDBA7A93EDDF
:103C2000007A0DF2AC43D3ED004A28EE243A68EE58
:103C3000275ADDED077A8DED073A9DEDBB3A28EE68
:103C4000032A9DED093A68EE034A0DF59663D3ED1C
:103C5000003ADDED082ACDED084ADDED054A68EEB3
:103C6000231A68EE243ADDED064A28EE244ADDEDFB
:103C70000A4A68EE244A0DF2B443CDED054AD3ED6D
:103C8000004A68EE244A0DF59763CDED024AD3ED64
:103C9000004A0DF2BC4328EE2E0A93ED003A68EE7E
:103CA0002AEA28EE0EEA68EE03AACDED01EA9DEDC0
:103CB000693ADDEDF3EA68EE244AAEEE2E3ADDED28
:103CC000036ADDEDBCEACDED034ADDED6A4AEEEEB6
:103CD0002E4A8DED693ACDED6A4A9DED6B3ADDEDE8
:103CE000BD4AAEEE243A28EE076A8DED6B3A28EE17
:103CF000277ADDED047ACDED04AA9DED6C3ADDED79
:103D0000F44AAEEE243ADDED0D4A8DED6C3A9DEDB0
:103D10006D3AAEEE243ADDED6E4A8DED6D3A9DEDD5
:103D20000E3AEEEE034A9DED0B3ACDED6E4ADDED17
:103D30006F4AEEEE034A9DED0C3ACDED6F4ADDED94
:103D4000704ADDEDCEAAEEEE034A68EE2DDA7AEE89
:103D50008EAA9DED723A9DEDF3EACDED704ADDED50
:103D6000714AADEEAE3AEDEE8E4A8DED723ACDED82
:103D7000714A9DED733ADDEDBD4AADEEA43ADDED3D
:103D8000F44A8DED733A9DED743AADEEA43ACDED63
:103D9000CEAA8DED743ADDED75AA9DED0D3AEDEEEE
:103DA00083AACDED75AADDED76AA9DED0E3AEDEE76
:103DB00083AA9DED0B3ACDED76AADDED77AAEDEE67
:103DC00083AA9DED0C3ACDED77AADDED78AAEDEE54
:103DD00083AACDED78AADDEDCFAA28EE0DDA7AEE32
:103DE000ADDADDED79AAEDEE0EAACDED79AADDED25
:103DF0007AAAEDEE2EAACDEDCFDACDED7AAAF0EECD
:103E00004EDADDED7BAA9DEDBDEAEDEE0EAACDED1D
:103E10007BAADDED7CAAEDEE24AA9DED0D3ACDED59
:103E20007CAADDED7DAAEDEE03AA9DED0E3ACDED67
:103E30007DAADDED7EAAEDEE03AA9DED0B3ACDED58
:103E40007EAADDED7FAAEDEE03AA9DED0C3ACDED45
:103E50007FAADDED80AAEDEE03AA9DEDD03A33EE08
:103E60000DDA68EE2CCACDED80AA8DEDD0DA9DED8D
:103E700081DAACEEADDA8DED81DA9DED82DAACEE71
:103E8000AEDADDED83EAECEE8EEACDED83EADDED30
:103E900084EAECEEA4EA8DED82DACDED84EA9DEDC4
:103EA0000DDADDED85EAECEE8DEA9DED0E3ACDED15
:103EB00085EADDED86EAECEE83EADDED87AACDED5D
:103EC00086EADDED0BEAECEEAEAADDED0CEACDED17
:103ED00087AADDED88AAECEEAEAADDEDD1EA7EEE92
:103EE000ACCA28EE0CCACDEDD1CADDED89CAECEE24
:103EF0002DCA68EE2BBACDED89CADDED91CAEBEE85
:103F0000ADCADDEDBCEACDED91CADDED8ACAECEEBD
:103F10002ECADDED92DACDED8ACADDED8BCAEBEE6D
:103F2000AEDAECEE0ECACDED88AACDED92DACDED8B
:103F30008BCADDED93CAEBEE8ECA9DED94EAABEE33
:103F4000A4EADDED8CDA8DED94EA9DED8DEAECEEE0
:103F500024DAACEE0DEAF0EE4DEA9DED95DACDED0A
:103F60008CDAABEEAEDADDED8FDADDED0BEAECEEFE
:103F70002EDACDED8FDADDED97DA8DED8DEAEBEE11
:103F8000AEDA9DED90EADDED0CEAACEE2EEACDED79
:103F900093CA8DED90EADDED8ECA9DEDD2EAECEE8E
:103FA00003CA3EEE0CCA8DEDD2CA9DED98CAABEEA7
:103FB000AECA8DED95DA8DED98CA9DED96DA9DED40
:103FC000D3CAABEE83DA7CEE2BBA0DF58B63DDED55
:103FD00007AADDED39EACDEDD3BAD3ED00BAEAEEAA
:103FE000ABEA0DF25C43CDED8ECA8DED96DACDEDE8
:103FF00097DACDED39EADDED3A4A93ED00CA0DF5D9
:104000008C63D3ED00CADDED3BDAEAEEACDA0DF2FB
:10401000644393ED00DA0DF58D63DDED3DEACDED02
:104020003BDAD3ED00DAEAEEADEA9DED3CEACDED08
:104030003DEADDEDC6EAEAEE8C4AAAEE8DEA7EEEB6
:10404000AAEA0DF26C439DED3E3ACDED3A4A8DED74
:104050003CEADDED3F4A93ED00EACDEDC6EADDED49
:1040600040EAAAEE8E3AE1EEAB4AE1EE8CEA8DED43
:104070003E3ACDED3F4A9DED413ADDED424ACDED70
:1040800040EADDED43EAA1EEAC3AE1EE8D4AE1EE25
:10409000ADEA8DED413ACDED424A9DED443ACDED8C
:1040A00043EADDED454ADDEDC7EAA1EE8E3AE2EEE8
:1040B0002B4A7EEEA11A8DED443ACDEDC71ACDED17
:1040C000454ADDED46EA9DED473AE2EE0CEAA2EE06
:1040D0002C3ADDED484ACDED46EA8DED473ADDED6F
:1040E00049EA9DED4A3A68EE222AF0EE6B1AE2EEBA
:1040F0000D4AF0EE4CBAE2EE2DEAB0EE6CCAA2EE3A
:104100000E3AF0EE4DCAB0EE6DDAF0EE4EDA9DEDFD
:104110004BEAA2EEA1EA8DED4BEA9DED4CEAA2EE50
:10412000ABEA8DED4CEA9DED4DEAA2EE8CEA8DED09
:104130004DEA9DED4EEACDED49EAA2EEACEADDEDA9
:10414000C8EACDED484A3EEE822ADDED504A8DEDBB
:104150004EEA9DED4FEAE2EEAD4AA2EE8DEA8DED1C
:10416000C82AB0EE6B2AF0EE4CBAB0EE6CCAF0EE94
:104170004DCAB0EE6DDADDEDC9DADDED08AA7DEEEF
:10418000A22ADDED51DAEAEEA1DACDED51DADDED6C
:1041900052DAEAEE82DACDED52DADDED53DAEAEE0A
:1041A000ABDA8DED4A3A8DED4FEACDED504ACDEDCB
:1041B000C92ACDED53DADDED54DAEAEE8CDACDED35
:1041C00054DADDED55DAEAEEACDACDED55DADDEDB7
:1041D00056DAB0EE613AEAEE8DDAF0EE6B1AF0EEF6
:1041E0004CBAB0EE6CCAF0EE4DCA9DED57DAA3EEB4
:1041F00083DA8DED57DA9DED58DAA3EE82DACDED54
:1042000056DA8DED58DADDEDCADA9DED59DA3DEE7C
:10421000AAEAA3EEA1DADDED5CEA8DEDCAEA8DED46
:1042200059DA9DED5BEA9DED5ADAF0EE422AA3EEF3
:10423000ABDAB0EE612AA3EE8CEAF0EE6B1AE3EE95
:10424000ACEAF0EE4CBAB0EE6CCADDED5DCAE4EE5D
:1042500003CADDED054ACDED5DCADDED63CAE4EECE
:1042600083CACDED63CADDED5ECAE4EE22CACDEDB0
:104270005ECADDED64CADDEDCBDAE4EEA2CADDEDA7
:104280005F2A7DEEA3DAE4EE022A8DED5ADA8DED97
:104290005BEACDED5CEACDEDCBDACDED64CACDEDD8
:1042A0005F2ADDED652AE4EE822ACDED652ADDED9B
:1042B000662AE4EEA12A9DED672ACDED662ADDEDA2
:1042C000612AA4EEAB2AE4EE2B2ADDED62BAE4EE1D
:1042D0000CBACDED62BADDEDCCBA7BEE84BADDED81
:1042E00060CACDEDCCBADDED68BAE4EE21CAE4EEE9
:1042F0008CBA0DF28C4393ED00DA0DF59263D3ED99
:10430000003A0DF2944393ED003A0DF593639DED61
:104310000FCADDED11DA9DED12EACDED60CACDEDEB
:10432000612ADDED10CAD3ED002A8DED672ACDEDAF
:1043300068BA9DEDBF2ADDEDCDBADDED13EAA5EE3D
:104340000DCAE5EE23CAE5EE03DAA5EE22EAE5EEB4
:1043500002EA7BEEA4BA0DF29C43CDEDCDBA8DED11
:104360000FCACDED10CACDED11DA8DED12EACDED0B
:1043700013EAD3ED001ADDED14BAE5EE21BA0DF51E
:1043800094639DED15CACDED14BAD3ED00BAA5EE38
:104390002BCA8DED15CA9DEDC0CA3CEE05CADDEDF8
:1043A00016CA8DEDC0CA9DED1ACAE5EE8DCAA5EEFE
:1043B00082CADDED17DA9DED18EADDED19EACDEDE3
:1043C00016CA8DED1ACADDED1BCA9DEDC1CAE5EE18
:1043D000A3DAA5EE83EAE5EEA2EAE5EEA1CA3CEE99
:1043E00025CACDED17DA8DED18EADDED1CDA9DED6D
:1043F0001DEACDED19EACDED1BCADDED1EEADDEDBE
:1044000020CA8DEDC1CA9DED1FCAE5EEABDAA6EE5E
:104410000DEAE6EE23EAA6EE03CAE6EE22CA8DED29
:104420001DEACDED1EEA8DED1FCACDED20CACDED02
:104430001CDADDED21DA9DEDC2CA9DED22EADDED4B
:1044400023EAE6EE02DAA6EE21EAE6EE2BEA3CEEFD
:10445000066A68EE266A8DEDC26A9DED266AA6EEB2
:10446000836A9DED24CADDED25CADDED2A4ACDED36
:1044700021DA8DED22EADDED27DA9DED28EACDED9A
:1044800023EA8DED266ADDED29EA9DEDC36AA6EEED
:104490008DCAE6EEA3CAE6EEA2DAA6EE82EAE6EE60
:1044A000A1EAE6EEAB4A36EE266ADDED2B6AE7EED0
:1044B0000D6A68EE277ACDED2B6ADDED326AE7EE04
:1044C0008D6A9DED2CDAA7EE23DA8DED2CDA9DEDC9
:1044D00033DAA7EEA3DA8DED24CACDED25CACDEDF2
:1044E00027DA8DED28EACDED29EACDED2A4A8DEDCA
:1044F000C36ACDED326A8DED33DA9DED2DDAA7EE8C
:1045000003DA8DED2DDA9DED34DAA7EE83DA9DED39
:104510002E3AA7EE223A8DED2E3A9DED353AA7EED2
:10452000A23ADDED362A8DED353A9DED2F3AE7EED4
:10453000822AA7EE023A8DED34DA9DED372A9DED01
:1045400030DAA7EEA12AA7EE21DA8DED2F3ADDEDC4
:10455000C41A9DED313AA7EE2B3A31EE877A8DEDF4
:10456000C47A9DED387AA7EEAB7ADDEDC5BA8DED54
:10457000387A3BEEA77A0DF58E638DEDC57A93ED13
:10458000007A0DF27443D3ED006A28EE0BBADDED2C
:10459000BE7ADDED993ACDED362A8DED313ADDED7D
:1045A000D52A9DEDD43AE6EE8B2AA7EE0B3AE7EE3C
:1045B0008B3A0DF58F638DED30DA8DED372ACDED29
:1045C000993A8DEDD43ACDEDD52A93ED006A0DF2EE
:1045D0007C43D3ED005A0DF5906393ED005A0DF234
:1045E0008443D3ED004A0DF59163D3ED00AA9DED10
:1045F000DBDA9DEDD62ADDEDD71ADDEDD8BA9DEDDB
:10460000D9CADDEDDACAA6EE0B2AE5EE8B1AE5EE85
:104610000BBAA4EE8BCAEAEE8BCA3DEE0BBA8DED57
:10462000DBBA9DEDDCBAA7EE80BADDED9A7AE5EE55
:10463000007ACDED9A7ADDED9B7AE4EE807A9DEDFD
:10464000DDDADDEDDEDA9DEDDFEADDEDE0EACDED90
:104650009B7ADDED9C7AA7EE00DAE6EE80DAA6EE34
:1046600000EAE5EE80EAEAEE807A8DEDD62ACDED1D
:10467000D71ACDEDD8BA8DEDD9CACDEDDACA8DED08
:10468000DCBA8DEDDDDACDEDDEDA8DEDDFEACDEDF4
:10469000E0EACDED9C7A9DED9D4AA7EE204A8DED96
:1046A0009D4A9DED9E4AA6EEA04A8DED9E4A9DED47
:1046B0009F4AA6EE204A8DED9F4A9DEDA04ADDED72
:1046C000E13AA5EEA04A33EE800A8DEDA04ADDED79
:1046D000A33A9DEDA14AEAEEA03AA5EE204ADDED0F
:1046E000BE7A8DEDE10A8DEDA14A9DEDE20A9DEDC8
:1046F000A24ACDEDA33ADDEDE33A28EE011AA7EE8A
:10470000A00AA4EEA04A73EEA00ADDEDA43AE7EEFB
:10471000013ACDEDA43ADDEDA53AE6EE813ACDEDD4
:10472000A53ADDEDA63AE6EE013ACDEDA63ADDED8D
:10473000A73AE5EE813ACDEDE30ACDEDA73ADDEDFE
:10474000E40ADDEDA83AE7EE810AE5EE013A8DEDE7
:10475000E20A8DEDA24ACDEDE40ACDEDA83ADDEDF9
:10476000A93AE4EE813ACDEDA93ADDEDAA3AEAEEB6
:10477000813ACDEDAA3ADDEDE53A68EE299A33EEBD
:10478000811ADDEDAB3AE7EE293ACDEDAB3ADDED3E
:10479000AC3AE6EEA93ACDEDAC3ADDEDAD3AE6EE57
:1047A000293ACDEDAD3ADDEDAE3AE5EEA93ACDEDE3
:1047B000AE3ADDEDAF3AE5EE293ACDEDAF3ADDEDBB
:1047C000B03AE4EEA93ACDEDB03ADDEDB13AEAEE19
:1047D000A93A8DEDE51ACDEDB13A9DEDE61ADDED84
:1047E000E73AA7EEA91A73EEA99A68EE288A28EE8E
:1047F000099ADDEDB33ACDEDE79ADDEDE89AE7EE03
:10480000A83AE7EE899ADDEDB27AE7EE097ACDEDC6
:10481000B27ADDEDB47AE7EE287ACDEDE89ACDED07
:10482000B33ACDEDB47A8DEDE61A9DEDE97ADDED82
:10483000B57AE6EEA87ACDEDB57ADDEDB67AE6EE9C
:10484000287ACDEDB67ADDEDB77AE5EEA87AA6EE58
:10485000897ACDEDB77ADDEDEA6ADDEDB87AE6EE7C
:10486000096AE5EE287A9DEDEB6ACDEDB87AA5EE02
:10487000896ADDEDB97ADDEDEC5AE4EEA87AE5EE71
:10488000095A9DEDED5ACDEDB97AA4EE895ADDEDC8
:10489000EF7ADDEDEE4AEAEE894A37EE899ADDEDF0
:1048A000F17A8DEDEF9A77EEA83A9DEDF09ADDED75
:1048B000697AAAEEA89AC9EDEC7ADDED6A7A8DEDF7
:1048C000E97ACDEDEA6A8DEDEB6ACDEDEC5A8DED2E
:1048D000ED5ACDEDEE4A8DEDF09ACDEDF13AC9ED00
:1048E000F47ADDED6B7AC9EDFC7ADDED6C7ACAED18
:1048F000007ADDED6D7ACBED007ADDED6E7ADDF8D4
:10490000D034DDF8D424C3ED007ADDED6F7AC2ED4A
:10491000007ADDED707ADDF8D814F298C1ED007AF6
:10492000DDEDCE7AC0ED007ADDED717AC9EDED7A7C
:10493000DDED727AC9EDF57ADDED737ADDED75AAFC
:10494000C9EDFD7ADDED747ACAED017ACBED01AAED
:10495000DDED76AAC3ED01AADDED77AAC2ED01AACD
:10496000DDED78AADDEDCF7AC1ED01AADDED79AA02
:10497000C0ED017AC9EDEEAADDED7AAAC9EDF6AA7D
:10498000DDED7BAAC9EDFEAADDED7CAACAED02AA87
:10499000DDED7DAACBED02AADDED7EAAC3ED02AA74
:1049A000DDED7FAAC2ED02AADDED80AADDEDD07AB1
:1049B000C1ED02AADDED81AAC0ED027AC9EDEFAA30
:1049C000DDED82AAC9EDF7AADDED83AAC9EDFFAA44
:1049D000DDED84AACAED03AADDED85AACBED03AA1D
:1049E000DDED86AAC3ED03AADDED87AAC2ED03AA19
:1049F000DDED88AAC1ED03AADDEDD1AAC0ED03AAC1
:104A0000DDED89AAC9EDF0AADDED8AAAC9EDF8AA03
:104A1000DDED8BAADDF8E80428EE0AAAC0ED00AAB5
:104A2000DDED8CAACAED04AADDED8DAACBED04AABA
:104A3000DDED8EAAC3ED04AADDED8FAAC2ED04AAB6
:104A4000DDED90AAC1ED04AADDEDD2AAF2981434EE
:104A5000C0ED04AADDED91AAC9EDF1AADDED92AA9F
:104A6000C9EDF9AADDF8DC04DDED93AAC0ED00AADA
:104A7000DDED94AACAED05AADDED95AACBED05AA58
:104A8000DDED96AAC3ED05AADDED97AAC2ED05AA54
:104A9000DDED98AA9DED394AC1ED05AADDEDD3AA59
:104AA000F298C0ED05AA89EDAE4A9DED3A4A89ED2E
:104AB000B84A9DED3B4A89EDC24A9DED3C4A89EDDD
:104AC000CC4A9DED3D4A89EDD64A9DED3E4ADDED4D
:104AD000C6AA89EDE04A9DED3F4AC6ED00AA89EDE0
:104AE000AF4A9DED404A89EDB94A9DED414A89EDB5
:104AF000C34A9DED424A89EDCD4A9DED434A89ED79
:104B0000D74A9DED444ADDEDC7AA89EDE14A9DED06
:104B1000454AC6ED01AA89EDB04A9DED464A89EDA8
:104B2000BA4A9DED474A89EDC44A9DED484A89ED50
:104B3000CE4A9DED494A89EDD84A9DED4A4ADDEDC0
:104B4000C8AA89EDE24A9DED4B4AC6ED02AA89ED5D
:104B5000B14A9DED4C4A89EDBB4A9DED4D4A89ED28
:104B6000C54A9DED4E4A89EDCF4A9DED4F4A89EDEC
:104B7000D94A9DED504ADDEDC9AA89EDE34A9DED84
:104B8000514AC6ED03AA89EDB24A9DED524A89ED1C
:104B9000BC4A9DED534A89EDC64A9DED544A89EDC4
:104BA000D04A9DED554A89EDDA4A9DED564ADDED34
:104BB000CAAA89EDE44A9DED574AC6ED04AA89EDDB
:104BC000B34A9DED584A89EDBD4A9DED594A89ED9C
:104BD000C74A9DED5A4A89EDD14A9DED5B4A89ED60
:104BE000DB4A9DED5C4ADDEDCBAA89EDE54A9DED02
:104BF0005D4AC6ED05AA89EDB44A9DED5E4A89ED90
:104C0000BE4A9DED5F4A89EDC84A9DED604A89ED37
:104C1000D24A9DED614A89EDDC4A9DED624ADDEDA7
:104C2000CCAA89EDE64A9DED634AC6ED06AA89ED58
:104C3000B54A9DED644A89EDBF4A9DED654A89ED0F
:104C4000C94A9DED664A89EDD34A9DED674ADDED7F
:104C5000CDAA89EDDD4A9DED684A89EDE74AC6EDAA
:104C600007AADDED0F8AC9ED748ADDED108AC9ED62
:104C70007C8ADDED118AC9ED848ADDED128AC9EDE9
:104C80008C8ADDED138AC9ED948ADDED148AC9EDB5
:104C90009C8ADDED158ADDEDC0AAC9EDA48ADDEDA3
:104CA000168ADDF8E004C0ED00AAC9ED758ADDEDD5
:104CB000178AC9ED7D8ADDED188AC9ED858ADDED9B
:104CC000198AC9ED8D8ADDED1A8AC9ED958ADDED67
:104CD0001B8ADDEDC1AAC9ED9D8ADDED1C8AC9EDF7
:104CE000A58AC0ED01AADDED1D8AC9ED768ADDED4C
:104CF0001E8AC9ED7E8ADDED1F8AC9ED868ADDED4B
:104D0000208AC9ED8E8ADDED218AC9ED968ADDED16
:104D1000228AC9ED9E8ADDED238ADDEDC2AAC9EDA6
:104D2000A68ADDED248AC0ED02AAC9ED778ADDED01
:104D3000258AC9ED7F8ADDED268AC9ED878ADDEDFA
:104D4000278AC9ED8F8ADDED288AC9ED978ADDEDC6
:104D5000298ADDEDC3AAC9ED9F8ADDED2A8AC9ED56
:104D6000A78AC0ED03AADDED2B8AC9ED788ADDEDB7
:104D70002C8AC9ED808ADDED2D8AC9ED888ADDEDAA
:104D80002E8AC9ED908ADDED2F8AC9ED988ADDED76
:104D9000308AC9EDA08ADDED318ADDEDC4AAC9ED06
:104DA000A88ADDED328AC0ED04AAC9ED798ADDED6D
:104DB000338AC9ED818ADDED348AC9ED898ADDED5A
:104DC000358AC9ED918ADDED368AC9ED998ADDED26
:104DD000378AC9EDA18ADDED388AC9EDA98ADDEDF2
:104DE000C58AC0ED058ADDED993A89ED333ADDEDEE
:104DF0009A7A9DEDDB3AC9ED2A3AC9ED3C2A89ED54
:104E0000452AC9ED4E1AC9ED57BA89ED60CAC9EDF8
:104E100069CA88ED003AC9ED587ADDED9B7A9DEDBF
:104E2000E13AC9ED617A9DED9D4ADDED9C7A89ED0F
:104E30002BBA89ED34DAC9ED3DDA89ED46EAC9EDE0
:104E40004FEAC9ED6A7A88ED013A89ED354A9DED60
:104E50009E4A89ED3E4A9DED9F4A89ED474A9DED68
:104E6000A04A89ED2C0A89ED504A9DEDA14ADDED5D
:104E7000A33A89ED594A9DEDA24AC9ED6B3A89EDF5
:104E8000624ADDEDA43A9DEDE34A88ED024AC9EDA0
:104E9000363ADDEDA53AC9ED3F3ADDEDA63AC9ED6A
:104EA000483ADDEDA73AC9ED513ADDEDA83AC9ED32
:104EB0005A3ADDEDA93AC9ED633ADDEDAA3A9DED26
:104EC000E54AC9ED6C3ADDEDAB3AC9ED2D0A88ED46
:104ED000034AC9ED373ADDEDAC3AC9ED403ADDEDB4
:104EE000AD3A89ED2E1AC9ED493ADDEDAE3AC9ED7C
:104EF000523ADDEDAF3AC9ED5B3ADDEDB03A9DEDEA
:104F0000E74AC9ED643ADDEDB27ADDEDB13AC9EDBB
:104F10006D3A88ED044AC9ED387A9DEDEF4ADDED32
:104F2000B47AC9ED2F9A89ED417AC9ED4A6A89EDC3
:104F3000536AC9ED5C5A89ED655AC9ED6E4A88ED30
:104F4000054AC9ED397ADDEDB57AC9ED427ADDED74
:104F5000B67AC9ED4B7ADDEDB77ADDEDB33AC9ED3E
:104F6000547ADDEDB87AC9ED303AC9ED5D7A9DED40
:104F7000015A9DEDF8BADDED028A3BEE054A9DED42
:104F8000FCBA0DF5806089ED6F9A7BEE283A9DEDB5
:104F9000039A90ED00BA3BEE093A80ED003A0DF528
:104FA000826090ED00BADDED04AA7BEE2A2AC0ED06
:104FB000002A0DF5846090ED00BADDEDB97A3BEE84
:104FC0000A2AC9ED667A80ED002ADDEDF17A0DF549
:104FD0009860C8ED067AD0ED007A0DF2C44028EE54
:104FE000277AD0ED007A0DF2CC4068EE276AD0ED3A
:104FF000004AF0EE4F7A0DF59960D0ED00BA0DF54C
:10500000866090ED00BAE4EEE47A6BEEA77A7BEE70
:1050100007BAC0ED00BA0DF5886090ED00BA7BEEDE
:10502000261AC0ED001A0DF58A6014ED016A68EECB
:10503000277ADDEDF55A90ED00BAE5EE065A3BEE23
:1050400027BACDEDF55AC9ED0A5A8DEDF84ACDEDE6
:10505000FC3A80ED00BA94ED006ADDEDF65AE5EE1B
:10506000065AC9ED145ACDEDF65A94ED016ADDEDFC
:10507000F75AE5EE065AC9ED1E5A85ED004ACDED08
:10508000F75A14ED016ADDEDF95AE8EE865AC9EDDA
:105090000B5ACDEDF95A94ED006ADDEDFA5AE8EEBF
:1050A000865AC9ED155ACDEDFA5A94ED016ADDED37
:1050B000FB5AE8EE865AC9ED1F5AC5ED013ACDED0F
:1050C000FB5A14ED016ADDEDFD5AE9EE065AC9ED11
:1050D0000C5ACDEDFD5A94ED006ADDEDFE5AE9EE75
:1050E000065AC9ED165ACDEDFE5A94ED016ADDED72
:1050F000FF5AE9EE065ACDEDFF5AC9ED205A85ED6B
:10510000023A0DF2044014ED016AD0ED005AEAEEC5
:10511000865AC0ED005AC9ED0D5A0DF5816094ED27
:10512000006AD0ED005AEAEE865AC0ED005AC9ED89
:10513000175A0DF20C4094ED016AD0ED005AEAEED8
:10514000865AC0ED005AC9ED215AC5ED032A0DF269
:10515000144014ED016AD0ED000AEAEE060AC0ED33
:10516000000AC9ED0E0A0DF5836094ED006A90ED1A
:10517000000AAAEE060A80ED000A89ED180A0DF26F
:105180001C4094ED016A90ED00CAAAEE06CA80EDBB
:1051900000CA89ED22CA85ED042A0DF22440D0ED23
:1051A00000CA14ED016AE7EE06CAC9ED0FCAC0EDE8
:1051B00000CA0DF5856094ED006A90ED00DAA7EE67
:1051C00006DA80ED00DA89ED19DA0DF22C4094ED63
:1051D000016AD0ED00DAE7EE06DAC0ED00DAC9EDDB
:1051E00023DAC5ED05BA0DF2344014ED017A90EDE5
:1051F00000EAA6EE87EA80ED00EA89ED10EA0DF5F7
:10520000876094ED007AD0ED00EAE6EE87EAC0ED23
:1052100000EAC9ED1AEA0DF23C4094ED017A90EDF6
:10522000006AA6EE876A80ED006A89ED246AC5ED02
:10523000061A0DF2444014ED017AD0ED006AE7EE53
:10524000876AC0ED006AC9ED116A0DF5896094EDB9
:10525000007AD0ED009AE7EE879AC0ED009AC9ED8A
:105260001B9A0DF24C4090ED005A94ED017AA7EE96
:10527000875A80ED005ADDF8E40489ED255AA042F2
:1052800085ED07BA7DF492A8B0EE481ADDF8EC245B
:10529000DDF8F814531E99420ED0DDF868159142DE
:1052A00002F10102CDF8EC243CF712AC0DF2045DE2
:1052B000BDEC108BBDE8F08F0622224922488DED0F
:1052C000021A21F083F9DDF8EC741F48394621F009
:1052D00059FB09221D49054621F078F9DDF8F464EF
:1052E0000DF2A443726893ED007A07EE902AF8EE6F
:1052F000677AC7EE277A17EE900A01923DF078FAA6
:105300000B460246284621F0E7FB0122104921F016
:105310005DF93B46DDF8682501339742CDF8EC3462
:10532000C4DA73689DED021ACDF8F034DDF8F0347C
:10533000002B7CF4D2ABDFED077A0DF2A443C3ED72
:10534000007AA3E76C2A0410749C0020742A0410CD
:10535000802A0410000000002DE9F04F0B464FF0AA
:10536000000A2DED028B0326002704464FF0080BA0
:1053700007254FF00609C3B0C0E900367822514630
:10538000C0E90666C760076147618660203030F07B
:10539000FDFF20225146C4E908BB04F1280030F08B
:1053A000F5FF20225146C4E912BB04F1500030F051
:1053B000EDFF20225146C4E91CBB04F1780030F017
:1053C000E5FF4FF490725146C4E926BB04F1A000FA
:1053D00030F0DCFFE0225146C4E92855C4E93155DC
:1053E000C4E93A55C4E94355C4E94C55C4E9555597
:1053F000C4E95E55C4E96755C4E9705504F5E47025
:1054000030F0C4FFF0225146C4E97299C4E97A9998
:10541000C4E98299C4E98A99C4E99299C4E99A993C
:10542000C4E9A299C4E9AA9904F52C7030F0AEFF42
:1054300020225146C4E9ACBB04F52E7030F0A6FF23
:1054400020225146C4E9B6BB04F5387030F09EFF07
:1054500020225146C4E9C0BB04F5427030F096FFEB
:1054600020225146C4E9CABB04F54C7030F08EFFCF
:1054700020225146C4E9D4BB04F5567030F086FFB3
:1054800020225146C4E9DEBB04F5607030F07EFF97
:105490004FF480725146C4E9E8BB04F56A7030F0FD
:1054A00075FF20225146C4E9EA99C4E9F299C4E99A
:1054B000FA99C4F80894C4F80C94C4F82894C4F871
:1054C0002C94C4F84894C4F84C94C4F86894C4F874
:1054D0006C94C4F88894C4F88C94C4F8A8B4C4F844
:1054E000ACB404F5966030F051FFC4F8D054C4F861
:1054F000D45404F25C5504F264532022514608EE61
:10550000105AC4F8D8A404F5526504F21C50C4F82B
:10551000DCA4C4F8E0A4C4F8E4A4C4F8E8A4C4F883
:10552000ECA4C4F8F0A4C4F8F494C4F8F894C4F853
:10553000FCA4C4F800A5C4F804A5C4F808A5C4F8E0
:105540000CA5C4F810A5C4F814B5C4F818B5039395
:10555000029530F01BFF4FF0630C039D40F2BC72CC
:1055600028465146C4F83C95C4F84095C4F844A573
:10557000C4F848A5C4F84CA5C4F850A5C4F854A56F
:10558000C4F858A5C4F85CC5C4F860C530F0FEFE88
:105590002B46029D9F60DF601F61C3E900661433E4
:1055A0009D42F7D14FF0630C04F628574FF4466242
:1055B00038460021C4F820CDC4F824CD30F0E6FEF2
:1055C000062000233A4604F5CC5708379360C2E919
:1055D000000002F1080120329742C1E90133C1E91C
:1055E00003334B61F2D104F580522046C2F888396A
:1055F00002950492FCF70EF900220321DFEDDC7A1C
:105600004FF07E5C039B04F5C960DFF86CB3C4F80F
:105610002C16C4F83016DFF864A3C3F8D020C3F802
:10562000D420C3F8D820C4F84016C4F84416C0EDFE
:10563000007A04F25C60C3F8E820C3F8EC20C4F8F8
:105640005416C4F85816C0F800B004F5CE60C3F87C
:10565000FC20C3F80021C4F86816C4F86C16C0F822
:1056600000A004F284600DF1D00EC3F81021C3F83D
:105670001421C4F87C16C4F88016C0F800C004F2E7
:105680009C60C3F82421C3F82821CDF814E0C4F8A5
:105690009016C4F89416CDF820E0CDF828E0C3F8B1
:1056A0003421C0F800C0C3F83C211846C4F8A41641
:1056B000C4F8A816C3F848210023DFF8C492CEE945
:1056C0000133CEE90333CEF81430349304F2B463DB
:1056D000C0F84C21DFF8AC82C3F800C004F2C46308
:1056E000C4F8B816C4F8BC16C0F85C21C3F8009022
:1056F00004F5DB63C0F86421C4F8CC16C4F8D016F6
:10570000C0F87021C3F80080C0F878210346142047
:105710009FED957B974E0DF1F00A0DF1E80CC4F862
:105720006005C4F8E016C4F8E41604F6C869C3F8C6
:105730008421C3F8882104F6886104F5DE631E60C5
:10574000CDF83CE0CDF80CA00691CDF81CC0CDF80A
:1057500048E0CDF8409004F6E869CDF8549004F69E
:105760000879CDF86C9004F62879CDF8809004F68D
:10577000487904F6A860CDF8989004F668797546E3
:10578000CDF850E0CDF824A00B90CDF830C0CDF886
:105790005CE0CDF868E0CDF838A0CDF844C0CDF895
:1057A00074E0CDF87CE0CDF84CA0CDF858C0CDF831
:1057B00088E0CDF894E0CDF864A0CDF8A0E0CDF875
:1057C00070C0CDF8ACE0CDF878A0CDF8B8E0CDF859
:1057D000C4E0CDF884C0CDF890A0CDF89CC0CDF841
:1057E000A8A0CDF8B090CDF8B4C07746CDF8C0A051
:1057F000BEE80F00AAE80F009EE803008AE8030055
:105800008DED3A7B04F66866CDF8CCC0BCE80F009D
:105810000FC69CE80F00DFF8708104F68879CDF898
:10582000C89086E80F00B8E80F0008F180062396BC
:105830002E460FC708F15001189108F1B0012F91C1
:1058400098E803008EE8030008F1980329930FCE2F
:10585000039E08F120090FC69EE803008AE80300B2
:105860008DED3A7B079ECDF834900FCE069E08F161
:10587000080B0FC69CE80F0086E80F00BBE80F007E
:105880002E460FC69BE803002E468EE803000FCE7F
:10589000099E08F138090FC69EE803008AE8030054
:1058A0008DED3A7B0C9E08F168070FCE0B9E0FC65C
:1058B0009CE80F0086E80F000D9E0FCE0FC5D6E9BD
:1058C00000018EE803000F9D0E9E0FCD0FC69EE8CF
:1058D00003008AE803008DED3A7B119E0FCE109EE7
:1058E0000FC69CE80F00129D86E80F00B9E80F0074
:1058F0000FC599E803008EE80300149D139E0FCD99
:105900000FC69EE803008AE803008DED3A7B169EE1
:10591000179D0FCE159E0FC69CE80F0086E80F005E
:10592000189E0FCE0FC5D6E900018EE803001A9D20
:10593000199E0FCD0FC69EE803008AE803008DED87
:105940003A7B1C9E0FCE1B9E0FC69CE80F001D9D30
:1059500086E80F000FCF0FC597E803008EE803001D
:105960001F9D1E9F12E000BF060000000600000001
:105970002BA3513E8BC3E13E9BCBE53E1687433FB5
:10598000AE62313EDE72393F842A04100FCD0FC75C
:105990009EE803008AE803008DED3A7B219F209E5C
:1059A0000FCF0FC69CE80F00229D86E80F00239EB4
:1059B0000FCE0FC596E803008EE80300259D249FB7
:1059C0000FCD0FC79EE803008AE803008DED3A7BF8
:1059D000279F269E0FCF0FC69CE80F0086E80F007A
:1059E000299F289D0FCF0FC597E803008EE803007D
:1059F0002B9D2A9F0FCD0FC79EE803008AE8030066
:105A00008DED3A7B2D9F0FCF2C9E2F9F0FC69CE8CC
:105A10000F002E9D86E80F000FCF0FC597E80300FB
:105A20008EE803001421319DC4F8241D0FCD309F52
:105A3000329E0FC79EE803008AE803008DED3A7B93
:105A4000339F0FCF0FC69CE80F0086E80F000A2097
:105A5000029A049B18EE101AC3F88809236820469E
:105A60000093044BFCF704F8204643B0BDEC028BD6
:105A7000BDE8F08F0AD7233C38B5074C236803B143
:105A800038BD41F68C1002F0F1FA05464FF47A71F8
:105A9000FFF762FC256038BD988900202DE9F04FA2
:105AA0002DED108B9FEDFD8AD2ED029AD1ED0A5AB1
:105AB000F0EE487A92ED039A91ED146AE9EEA57A38
:105AC000D2ED048AD1ED1E6AE9EE067A1E4601F592
:105AD000966393ED007AE8EEA67A77EE877A0C4625
